:100000000C94F80C0C941B160C94F0150C94C5155C
:100010000C949A150C946F150C9444150C941915A6
:100020000C94EE140C94290D0C94290D0C94290DAC
:100030000C94290D0C94290D0C94290D0C94290D68
:100040000C94290D0C94290D0C94290D0C94290D58
:100050000C94290D0C94290D0C94290D0C948F25CA
:100060000C94290D0C94E5160C94BB160C94290DD8
:100070000C94290D0C94290D0C94290D0C94290D28
:100080000C94290D0C94290D0C94290D0C94290D18
:100090000C94290D0C94290D0C94290D0C945218D4
:1000A0000C94290D0C94290D0C94290D0C94290DF8
:1000B0000C94290D0C94290D0C94290D0C94290DE8
:1000C0000C94290D0C94290D0C94290D0C94290DD8
:1000D0000C94290D0C94290D0C9485160C945B1628
:1000E0000C94290D6520682057205B205F209F20FD
:1000F0006C20702076207A207E20842088208C201E
:100100009F20922096209A200C94D9110C947A204A
:100110000C945A120C9465200C9468200C94790D60
:100120000C94272D0C9457200C94C8100C94870D18
:100130000C94C5110C94AC100C94B4110C942B0DB0
:100140000C9492200C94DB100C948C200C945F2067
:100150000C94D4100C949D170C942C0D0C94D92550
:100160000C947E200C9484200C945B200C94560DEF
:100170000C94BC100C94D70F0C94B5110C94F60E83
:100180000C94AB100C949A200C94380E0C943D12E5
:100190000C94E9120C94C90D0C9476200C94411225
:1001A0000C94B6110C94160E0C949E120C94650DC2
:1001B0000C943E120C94F40F0C9488200C949F2005
:1001C0000C94E1110C946C200C9496200C946A0F02
:1001D0000C9470200C940B0F0C940E12DB40A4A610
:1001E0002EAF2000A1C8D300408DAED580A800005E
:1001F000600000000000000000000000000000E0BF
:100200000000000000000000000000000001E0000D
:1002100000000000000000000000000001F00000ED
:10022000000000000000000000000003F0000000DB
:100230000000000000000000000007F000000000C7
:1002400000000000000000000007F80000000000AF
:1002500000000000000000000FF800000003C000D4
:100260007E000001E0007F0FF800000003C000FEE8
:10027000000001E000FFEFF800000003C000FE00F6
:100280000001E000FFFFF800000003C000F00000E4
:10029000000F007FFE7FC0000003C000F0000000E0
:1002A0000F003FFE7FF83FF1FBCFFCFEF3BC3DEFBC
:1002B000E01FFE7FFF7FFBFFDFFEFEFFBC3DEFE0A8
:1002C0001FC6FFFF7FFBFFDFFEFEFFBC3DEFE00F21
:1002D000E3C7FE787BC3DE1EF0FFBC3DEF0007FFE7
:1002E00087FC787BC3DE1EF0F83C3DEF0001FFFF8A
:1002F000F0007BC3C01EF0F03C3DEF0001F37FE057
:100300003FFBC3CFFEF0F03C3DEF0003E33F807FB7
:10031000FBC3DFFEF0F03C3DEF0007E73C00787BDD
:10032000C3DE1EF0F03C3DEF0007FFBE00787BC34C
:10033000DE1EF0F03C3DEF0007FFFE00787BC3DEE1
:100340001EF0F03C3DEF000FFFFE007FFBFFDFFEE5
:10035000F0F03FFDEFE00FFFFF007FFBFFDFFEF05F
:10036000F03FFDEFE00FF9FF003E79F9CF9EF0F08E
:100370001F3DE7E01FF1FF0000000000000000004B
:100380000000001F80FF007FFFFFFFFFFFFFFFFF58
:10039000FFE01C007F007FFFFFFFFEB46D888D181B
:1003A000E000001F007FFFFFFFFE95AD7DB577E009
:1003B00000000F007FFFFFFFFEA5AD9D8D19E0003F
:1003C0000006007FFFFFFFFEB5ADEDB57EE000004B
:1003D0000000000180000000000000000000038019
:1003E00000000000000000000007C0000000000046
:1003F0000000000007C00000000000000000000F27
:10040000C00000000000000000001FE0000000002D
:1004100000000000001FE0000000000000000000DD
:100420003FE00000000000000000003FF00000007E
:100430000000000000007FF0000000000000001F2E
:10044000F87FF0000000000000003FFE7FF0000099
:1004500000000000003FFF7FF000000000000000EF
:100460001FFFFBE0000000000000000FFFF9FFC0CD
:100470000000000000000FFFF9FFF800000000007E
:100480000007FFF1FFFF00000000000003FC73FF06
:10049000FF80000000000001FE3FFFFF8000000021
:1004A000000000FF1E0FFF000000000000007FFEA4
:1004B0001FFC000000000000003FFFFFF8000000EC
:1004C000000000000FDFFFE0000000000000001F40
:1004D00019FFC0000000000000003F3CFF000000CA
:1004E00000000000007E7CF800000000000000001A
:1004F0007FFE7C0000000000000000FFFFFC000009
:10050000000000000000FFFFFE00000000000000EF
:1005100000FFFFFE0000000000000001FFEFFE00F2
:1005200000000000000001FFCFFE000000000000FE
:100530000003FF07FE0000000000000003FC07FEB0
:100540000000000000000003F003FE0000000000B7
:100550000000018000FE000000000000000000001C
:100560007E000000000000000000003E00000000CF
:100570000000000000000C000000000000078000E8
:10058000FC000003C0000000078001FC000003C065
:10059000000000078001FC000003C000000007808D
:1005A00001E00000001E000000078001E0000000E4
:1005B0001E007FE3F79FF9FDE7787BDFC0FFF7FFC1
:1005C000BFFDFDFF787BDFC0FFF7FFBFFDFDFF78BC
:1005D0007BDFC0F0F787BC3DE1FF787BDE00F0F702
:1005E00087BC3DE1F0787BDE0000F787803DE1E0ED
:1005F000787BDE007FF7879FFDE1E0787BDE00FF00
:10060000F787BFFDE1E0787BDE00F0F787BC3DE1D6
:10061000E0787BDE00F0F787BC3DE1E0787BDE0030
:10062000F0F787BC3DE1E0787BDE00FFF7FFBFFD20
:10063000E1E07FFBDFC0FFF7FFBFFDE1E07FFBDF15
:10064000C07CF3F39F3DE1E03E7BCFC000000000A3
:1006500000000000000000FFFFFFFFFFFFFFFFFFA3
:10066000FFC0FFFFFFFFFD68DB111A31C0FFFFFF76
:10067000FFFD2B5AFB6AEFC0FFFFFFFFFD4B5B3B0B
:100680001A33C0FFFFFFFFFD6B5BDB6AFDC000009C
:10069000000000000000000000000000000000005A
:1006A000000000000000000000000000000000004A
:1006B000000000000000000000000000000000003A
:1006C000000000000000000000000000000000002A
:1006D000000000000000000000000000000000001A
:1006E000000000000000000000000000000000000A
:1006F00000000000000000000000000000000000FA
:100700003000000000000000000000000000198020
:100710000000000000000000007FFFFFFC08000058
:1007200000000000000003FFFFFFFF810000000049
:10073000000000001FFFFFFFFFF920000000000085
:100740000001FFFFC0000007020000000000003FA2
:10075000FFFE0000000072401FFFFFFFFFFFF800D8
:10076000000FFFFF870807FFFFFFFFFF000003FFE9
:10077000FFFFF8E101C00000000000003FFFFFFFA5
:10078000FF8E20380000000000007FFFFFFFFFF910
:10079000C40E140000000001FFFF000000001A81D9
:1007A000C3FFFFFFFFFFFFF0000000000330707F7A
:1007B000FFFFFFFFFFE00000000000620E1FFFFFD1
:1007C000FFFFFFF800000000000CC1C3FFFFFFFFA8
:1007D000FFFFFFFFFFFFFFF9A8387FFFFFFFFFFFCD
:1007E000FFFFFFFFFFFF310E1FFFFFFFFFFFFFFFB8
:1007F000FFFFFFFFE621C3FFFFFFFFFFFFFFFFFF3C
:10080000FFFFFCC4387FFFFFFFFFFFFFFFFFFFFF7D
:10081000FF98870FFFFFFFFFFFFFFFFFFFFFFFF3C3
:1008200010E1FFFFFFFFFFFFFFFFFFFFFFFEC21C06
:100830003FFFFFFFFFFFFFFFFFFFFFFFF04387FFCB
:10084000FFFFFFFFFFFFFFFFFFFFFC0870FFFFFF41
:10085000FFFFFFFFFFFFFFFFFE090E1FFFFFFFFF70
:10086000FFFFFFFFFFFFFFC0A1C1FFFFFFFFFFFF73
:10087000FFFFFFFFFFF0141C3FFFFFFFFFFFFFFF25
:10088000FFFFFFFE008387FFFFFFFFFFFFFFFFFF6C
:10089000FFFFC090707FFFFFFFFFFFFFFFFFFFFF25
:1008A000F80A070FFFFFFFFFFFFFFFFFFFFFFE41FB
:1008B00040E1FFFFFFFFFFFFFFFFFFFFFFC4480E08
:1008C0001000000001FFFFFFFFFFFFF11101C0005A
:1008D000000000003FFFFFFFFFFE10201C00000093
:1008E00000000007FFFFFFFFC10403FFFFFFFFFF42
:1008F000C0001FFFFFFFF820801FFFFFFFFFFFFF6B
:10090000F80007FFFF1030000000000000FFFFFEAE
:100910000000003004000000000000000FFFFFFF97
:10092000F00300800000000000000003FFFFFFFF55
:10093000E090000000000000000000FFFFFFFE024A
:10094000000000000000000000000007FFC240009F
:1009500000000000000000000000000C0800000083
:100960000000000000000000000081000000000006
:1009700000000000000000000FC0000000000000A8
:100980000000000000000000000000000000000067
:100990000000000000000000000000000000000057
:1009A0000000000000000000000000000000000047
:1009B0000000000000000000000000000000000037
:1009C0000000000000000000000000000000000027
:1009D0000000000000000000000000000000000017
:1009E0000000000000000000000000000000000007
:1009F00000000000000000000000000000000000F7
:100A000000000000000000000000000000000000E6
:100A100000000000000000000000000000000000D6
:100A200000000000000000000000000000000000C6
:100A300000000000000000000000000000000000B6
:100A400000000000000000000000000000000000A6
:100A5000000000000000000000000000000008008E
:100A6000000000000000000003FFFFFFFE80000008
:100A70000000000000001FFE000000300000000029
:100A800000000000FFF00000000200000000000075
:100A9000001FFF000000000060000FFFFFFFFFFFCE
:100AA000F80000000000040003FFFFFFFFFF00004C
:100AB0000001800000C00080000000000000007FF6
:100AC000C8000008001800000000000003F5FF80C7
:100AD000000180060000000000010FFFC0000000C0
:100AE0001800C3FFFFFFFFFFFF100000000003001E
:100AF000307FFFFFFFFFFFC000000000006006170F
:100B0000FFFFFFFFFFF800000000000C00C3FFFF25
:100B1000FFFFFFFEFFFFFF00000180107FFFFFFFD0
:100B2000FFFFFFFFFFE00000300617FFFFFFFFFFA2
:100B3000FFFFFFFC00000600C3FFFFFFFFFFFFFFFA
:100B4000FFFF800000C0187FFFFFFFFFFFFFFFFFD8
:100B5000F0000018030FFFFFFFFFFFFFFFFFFE0085
:100B600000030061FFFFFFFFFFFFFFFFFFC000006A
:100B7000600C3FFFFFFFFFFFFFFFFFF800000C01CD
:100B800087FFFFFFFFFFFFFFFFFF0000018030BF77
:100B9000FFFFFFFFFFFFFFFFE0000030060FFFFF3A
:100BA000FFFFFFFFFFFFFC00000600C1FFFFFFFF8C
:100BB000FFFFFFFFFF800000C0083FFFFFFFFFFFB8
:100BC000FFFFFFF00000180185FFFFFFFFFFFFFFA1
:100BD000FFFE00000300307FFFFFFFFFFFFFFFFF6E
:100BE000C0000060020BFFFFFFFFFFFFFFFFF800E8
:100BF000000C0060FFFFFFFFFFFFFFFFFF0000038F
:100C00000004000000000000FFFFFFE000006000A3
:100C1000000000000000001FFFFC0000080018009A
:100C2000000000000000FFFE8000030001FFFFFF46
:100C3000FFFFC000001FE0000040001FFFFFFFFF9C
:100C4000FFFC00000000001800000000000000FF92
:100C5000FF000000000200000000000000000FFF85
:100C6000C000000040000000000000000001FFFF85
:100C7000FC0000000000000000000000007FFFFFFB
:100C8000FD00000000000000000000000004004023
:100C90000000000000000000000000000000000054
:100CA0000000000000000000000000000000000044
:100CB0000000000000000000000000000000000034
:100CC0000000000000000000000000000000000024
:100CD0000000000000000000000000000000000014
:100CE0000000000000000000000000000000000004
:100CF00000000000000000000000000000000000F4
:100D000000000000000000000000000000000000E3
:100D100000000000000000000000000000000000D3
:100D200000000000000000000000000000000000C3
:100D300000000000000000000000000000000000B3
:100D400000000000000000000000000000000000A3
:100D50000000000000000000000000000000000093
:100D60000000000000000000000000000000000083
:100D70000000000000000000000000000000000073
:100D80000000000000000000000000000000000063
:100D90000000000000000000000000000000000053
:100DA0000800000000000000000003FFFFFFFE80BD
:100DB00000000000000000001FFE000000300000E6
:100DC000000000000000FFF0000000020000000032
:100DD0000000001FFF000000000060000FFFFFFF89
:100DE000FFFFF80000000000040003FFFFFFFFFF0B
:100DF00000000000000000C00080000000000000B3
:100E000000000000000800180000000000000000C2
:100E1000000000018006000000000000000000004B
:100E200000001800C3FFFFFFC0000000000000002A
:100E30000300307FFFFFF4000000000000000060AE
:100E40000617FFFFFF80000000000000000C00C339
:100E5000FFFFFFF0000000000000000180107FFF96
:100E6000FFFE0000000000000000300617FFFFFF3B
:100E7000C0000000000000000600C3FFFFFFF800F4
:100E800000000000000000C0187FFFFFFF0000000E
:100E9000000000000018030FFFFFFFE0000000004B
:100EA000000000030061FFFFFFFC000000000000E5
:100EB0000000600C3FFFFFFF80000000000000000A
:100EC0000C0187FFFFFFF000000000000000018020
:100ED00030BFFFFFFE000000000000000030060FE2
:100EE000FFFFFFC0000000000000000600C1FFFF80
:100EF000FFF80000000000000000C0083FFFFFFFF7
:100F00000000000000000000180185FFFFFFE00066
:100F10000000000000000300307FFFFFFC00000025
:100F2000000000000060020BFFFFFE8000000000D8
:100F30000000000C0060FFFFFFE000000000000068
:100F4000000300040000000000000000000000009A
:100F50006000000000000000000000000000080029
:100F6000180000000000000000000000030001FF66
:100F7000FFFFFFFFC000000000000040001FFFFF58
:100F8000FFFFFFFC00000000001800000000000050
:100F900000FFFF0000000002000000000000000051
:100FA0000FFFC00000004000000000000000000132
:100FB000FFFFFC0000000000000000000000007FB8
:100FC000FFFFFD0000000000000000000000000422
:100FD00000400000000000000000000000000000D1
:100FE0000000000000000000000000000000000001
:100FF00000000000000000000000000000000000F1
:1010000000000000000000000000000000000000E0
:1010100000000000000000000000000000000000D0
:1010200000000000000000000000000000000000C0
:1010300000000000000000000000000000000000B0
:1010400000000000000000000000000000000000A0
:101050000000000000000000000000000000000090
:101060000000000000000000000000000000000080
:101070000000000000000000000000000000000070
:101080000000000000000000000000000000000060
:101090000000000000000000000000000000000050
:1010A0000000000000000000000000000000000040
:1010B0000000000000000000000000000000000030
:1010C0000000000000000000000000000000000020
:1010D0000000000000000000000000000000000010
:1010E00000000800000000000000000003FFFFFFF8
:1010F000FE8000000000000000001FFE0000003025
:101100000000000000000000FFF0000000020000EE
:1011100000000000001FFF000000000060000FFF43
:10112000FFFFFFFFF80000000000040003FFFFFFC7
:10113000FFFF00000000000000C000800000000071
:10114000000000000000000800180000000000007F
:101150000000000000018006000000000000000008
:10116000000000001800C3C00000000000000000E4
:1011700000000300307800000000000000000000C4
:101180000060061700000000000000000000000CD6
:1011900000C3E0000000000000000000000180101B
:1011A0007C000000000000000000000030061780F6
:1011B000000000000000000000000600C3F0000076
:1011C000000000000000000000C0187E00000000C9
:1011D0000000000000000018030FC0000000000025
:1011E0000000000000030061F800000000000000A3
:1011F00000000000600C3F00000000000000000044
:1012000000000C0187E0000000000000000000006A
:10121000018030BC00000000000000000000003031
:10122000060F80000000000000000000000600C162
:10123000F00000000000000000000000C0083E00B8
:1012400000000000000000000000180185C0000040
:1012500000000000000000000300307800000000E3
:101260000000000000000060020900000000000013
:1012700000000000000C0060C00000000000000042
:101280000000000300040000000000000000000057
:1012900000006000000000000000000000000000EE
:1012A000080018000000000000000000000003001B
:1012B00001FFFFFFFFFFC000000000000040001F13
:1012C000FFFFFFFFFFFC000000000018000000000F
:1012D000000000FFFF00000000020000000000000E
:1012E00000000FFFC00000004000000000000000F0
:1012F0000001FFFFFC0000000000000000000000F3
:10130000007FFFFFFD000000000000000000000063
:101310000004004000000000000000000000000089
:1013200000000000000000000000000000000000BD
:1013300000000000000000000000000000000000AD
:10134000000000000000000000000000000000009D
:10135000000000000000000000000000000000008D
:10136000000000000000000000000000000000007D
:10137000000000000000000000000000000000006D
:10138000000000000000000000000000000000005D
:10139000000000000000456E20707265706172618F
:1013A00074696F6E2E2E2E0000FF2F260000FF2F77
:1013B0002700012F2900A300012F2A00A300436F5B
:1013C0006D6D616E646520736572766965202100BC
:1013D00000002100240027002A002D0030003300E7
:1013E00001010000040107010A010000220025009C
:1013F00028002B002E0031003400020100000501FE
:1014000008010B0105050505070508080808020283
:1014100002020A0A0808040404040101010101018E
:1014200001010303030303030303040707070C0C71
:101430000C0C0C0C0C0C0202020206060606060638
:1014400006060B0B0B0B0B0B0B0B010210202008DD
:10145000081020401020408002010201080402010F
:10146000010204081020408080402010080402017E
:1014700080040201804020100804020108040201D7
:10148000010204081020408001020408102040805E
:1014900000000A0B02090C0D0E08070304010000EE
:1014A000000000000000000000000000000000003C
:1014B00000000000000000000000000012111000F9
:1014C000000000000000000000000000000000001C
:1014D000000000000000000103070F1F3F7F008095
:1014E000C0E0F0F8FCFE00000000003E5B4F5B3EF9
:1014F0003E6B4F6B3E1C3E7C3E1C183C7E3C181CD9
:10150000577D571C1C5E7F5E1C00183C1800FFE7CF
:10151000C3E7FF0018241800FFE7DBE7FF30483A75
:10152000060E2629792926407F050507407F0525D7
:101530003F5A3CE73C5A7F3E1C1C08081C1C3E7F5F
:1015400014227F22145F5F005F5F06097F017F0026
:101550006689956A606060606094A2FFA294080446
:101560007E040810207E201008082A1C08081C2A67
:1015700008081E101010100C1E0C1E0C30383E38BF
:1015800030060E3E0E06000000000000005F000066
:101590000007000700147F147F14242A7F2A1223D7
:1015A0001308646236495620500008070300001CE7
:1015B0002241000041221C002A1C7F1C2A08083EF0
:1015C0000808008070300008080808080000606003
:1015D0000020100804023E5149453E00427F400071
:1015E00072494949462141494D331814127F102749
:1015F000454545393C4A4949314121110907364998
:10160000494936464949291E00001400000040346B
:101610000000000814224114141414140041221470
:101620000802015909063E415D594E7C1211127C97
:101630007F494949363E414141227F4141413E7FF8
:10164000494949417F090909013E414151737F08D8
:1016500008087F00417F41002040413F017F08147E
:1016600022417F404040407F021C027F7F040810DF
:101670007F3E4141413E7F090909063E4151215EBD
:101680007F09192946264949493203017F01033F51
:101690004040403F1F2040201F3F4038403F6314E0
:1016A00008146303047804036159494D43007F41E2
:1016B00041410204081020004141417F040201021F
:1016C0000440404040400003070800205454784044
:1016D0007F284444383844444428384444287F38D8
:1016E0005454541800087E090218A4A49C787F085A
:1016F00004047800447D40002040403D007F1028D5
:10170000440000417F40007C047804787C08040495
:10171000783844444438FC1824241818242418FC2D
:101720007C08040408485454542404043F44243CD2
:101730004040207C1C2040201C3C4030403C442841
:101740001028444C9090907C4464544C44000836DB
:101750004100000077000000413608000201020449
:10176000023C2623263C1EA1A161123A4040207A69
:1017700038545455592155557941225454784221B1
:101780005554784020545579400C1E5272123955E8
:1017900055555939545454593955545458000045E5
:1017A0007C410002457D420001457C407D121112C2
:1017B0007DF0282528F07C545545002054547C5455
:1017C0007C0A097F4932494949323A4444443A3211
:1017D0004A4848303A4141217A3A42402078009DB7
:1017E000A0A07D3D4242423D3D4040403D3C24FF63
:1017F0002424487E4943662B2FFC2F2BFF0929F612
:1018000020C0887E090320545479410000447D4162
:101810003048484A32384040227A007A0A0A727DBB
:101820000D19317D2629292F2826292929263048D6
:101830004D4020380808080808080808382F10C844
:10184000ACBA2F102834FA00007B000008142A14C8
:101850002222142A14085500550055AA55AA55AA43
:10186000FF55FF55FF000000FF00101010FF00148F
:101870001414FF001010FF00FF1010F010F01414EB
:1018800014FC001414F700FF0000FF00FF1414F410
:1018900004FC141417101F10101F101F1414141F11
:1018A00000101010F0000000001F101010101F108A
:1018B000101010F010000000FF1010101010101089
:1018C0001010FF10000000FF140000FF00FF0000D8
:1018D0001F10170000FC04F414141710171414F44C
:1018E00004F40000FF00F714141414141414F70087
:1018F000F7141414171410101F101F141414F414D8
:101900001010F010F000001F101F0000001F140046
:101910000000FC140000F010F01010FF10FF141471
:1019200014FF141010101F00000000F010FFFFFF44
:10193000FFFFF0F0F0F0F0FFFFFF0000000000FFFD
:10194000FF0F0F0F0F0F3844443844FC4A4A4A3403
:101950007E02020606027E027E026355494163381A
:1019600044443C04407E201E2006027E020299A5CB
:10197000E7A5991C2A492A1C4C7201724C304A4D29
:101980004D303048784830BC625A463D3E4949495E
:10199000007E0101017E2A2A2A2A2A44445F444407
:1019A00040514A444040444A51400000FF0103E096
:1019B00080FF000008086B6B083612362436060FCD
:1019C000090F06000018180000001010003040FF3A
:1019D0000101001F01011E00191D1712003C3C3CB3
:1019E0003C00000000002200FF210000272DD92527
:1019F00011241FBECFEFD1E2DEBFCDBF00E00CBF90
:101A000025E0A0E1B3E001C01D92A937B207E1F7DC
:101A100013E0A0E0B2E0E0EFF4E600E00BBF02C0AC
:101A200007900D92A031B107D9F71CE0C7EFDCE0B9
:101A300000E006C021970109802FFE010E94242F9B
:101A4000C63FD10780E00807A9F70E94EB250C9458
:101A500066320C9400000895CF92DF92EF92FF92CD
:101A60000F931F93CF93DF936C017A018B01C0E03A
:101A7000D0E0CE15DF0581F0D8016D918D01D60142
:101A8000ED91FC910190F081E02DC6011995892B13
:101A900011F02196EECF7E01C701DF91CF911F910A
:101AA0000F91FF90EF90DF90CF900895FC01538D40
:101AB000448D252F30E0842F90E0821B930B541728
:101AC00010F0CF96089501970895FC01918D828DB5
:101AD000981761F0828DDF01A80FB11D5D968C9182
:101AE000928D9F5F9F73928F90E008958FEF9FEF8D
:101AF0000895FC01918D828D981731F0828DE80F49
:101B0000F11D858D90E008958FEF9FEF0895FC0102
:101B1000918D228D892F90E0805C9F4F821B9109CF
:101B20008F739927089580EE93E00E94870D21E03E
:101B3000892B09F420E0822F08958DE794E00E941C
:101B4000870D21E0892B09F420E0822F0895FC0104
:101B5000848DDF01A80FB11DA35ABF4F2C91848D36
:101B600090E001968F739927848FA689B7892C936B
:101B7000A089B1898C91837080648C93938D848DBE
:101B8000981306C00288F389E02D80818F7D8083C1
:101B90000895EF92FF920F931F93CF93DF93EC0181
:101BA00081E0888F9B8D8C8D981305C0E889F98919
:101BB000808185FD26C0F62E0B8D10E00F5F1F4F34
:101BC0000F731127E02E8C8DE8120CC00FB607FCA6
:101BD000FACFE889F989808185FFF5CFCE010E948F
:101BE000A70DF1CF8B8DFE01E80FF11DE35AFF4FDA
:101BF000F0829FB7F8940B8FEA89FB89808180621D
:101C00000AC09FB7F894EE89FF896083E889F98953
:101C100080818370806480839FBF81E090E0DF914A
:101C2000CF911F910F91FF90EF900895CF93DF9385
:101C3000EC01888D8823C9F0EA89FB89808185FDC4
:101C400005C0A889B9898C9186FD0FC00FB607FC25
:101C5000F5CF808185FFF2CFA889B9898C9185FF66
:101C6000EDCFCE010E94A70DE7CFDF91CF91089570
:101C7000FC0177FDB9C080859185681779070CF064
:101C8000B3C057FDB1C082859385481759070CF042
:101C900008958689823079F484819581DC01A61BC0
:101CA000B70BBD016150710986819781DC01A41BCE
:101CB000B50BAD010EC0833009F084C064277527D1
:101CC000CA01862797276827792746815781481BAD
:101CD000590B415051092130310531F048F1223082
:101CE000310509F44AC00895CA0157FD07969C01C1
:101CF000A3E035952795AA95E1F7A481B5812A9FA0
:101D0000C0012B9F900D3A9F900D1124680F791FF1
:101D1000078CF0A1E02DE60FF71F4770552781E0F3
:101D200090E001C0880F4A95EAF79081892B48C05E
:101D3000CA0157FD07969C0193E0359527959A9522
:101D4000E1F7A481B5812A9FC0012B9F900D3A9F96
:101D5000900D1124680F791F078CF0A1E02DE60F7C
:101D6000F71F4770552781E090E001C0880F4A9522
:101D7000EAF780959081892323C0CA0157FD079611
:101D80009C0183E0359527958A95E1F7A481B5817B
:101D90002A9FC0012B9F900D3A9F900D1124680F30
:101DA000791F078CF0A1E02DE60FF71F477055272C
:101DB00081E090E001C0880F4A95EAF79081892779
:101DC00080830895813009F086CF642775274627E0
:101DD00057276427752784819581DC01A61BB70BE3
:101DE000BD016150710977CF08950895FC016370BA
:101DF000668B8481958126813781613039F063302B
:101E000029F091878087338722870895318720873B
:101E10009387828708956F927F928F929F92AF925D
:101E2000BF92CF92DF92EF92FF920F931F93CF93C7
:101E3000DF93EC014B015A0169013801E881F98116
:101E40000284F385E02D1995E881F9810288F389F0
:101E5000E02D87019601A501B401CE011995A501D8
:101E6000460D571D41505109E881F9810288F389D7
:101E7000E02D9601B401CE011995E881F981008821
:101E8000F189E02D9301A501B401CE011995C80C8B
:101E9000D91CB60161507109E881F9810088F18986
:101EA000E02D9301A501CE011995E881F9810688FD
:101EB000F789E02DCE01DF91CF911F910F91FF9017
:101EC000EF90DF90CF90BF90AF909F908F907F90DA
:101ED0006F9019948F929F92AF92BF92CF92DF92A0
:101EE000EF92FF920F931F93CF93DF934C016B01FF
:101EF0005A01E901DC01ED91FC916217730781F44D
:101F00000417150724F48B2D5801042F182F0A19D4
:101F10001B0998012F5F3F4F048CF58DE02D12C0F7
:101F20004017510709F52617370724F48D2D69014D
:101F3000C62FD82F9E012C193D092F5F3F4F068CCD
:101F4000F78DE02D8701A501B601C4011995DF9138
:101F5000CF911F910F91FF90EF90DF90CF90BF90A6
:101F6000AF909F908F9008950284F385E02D19958E
:101F7000D401ED91FC910488F589E02D9E01A50125
:101F8000B601C4011995D401ED91FC910688F78939
:101F9000E02DC401DF91CF911F910F91FF90EF9041
:101FA000DF90CF90BF90AF909F908F901994EF9259
:101FB000FF920F931F93DC011A960D911C911B97B2
:101FC00018962D913C911997ED91FC9100A0F1A1EB
:101FD000E02D7B0140E050E060E070E019951F913A
:101FE0000F91FF90EF9008954F925F926F927F92C2
:101FF0008F929F92AF92BF92CF92DF92EF92FF9219
:102000000F931F93CF93DF936C012B015A0139017A
:102010004801DC01ED91FC910284F385E02D1995D6
:10202000E201640C751CD601ED91FC91C615D70533
:102030005CF40088F189E02D87019401A501BE01BF
:10204000C60119952196EFCF0688F789E02DC601C4
:10205000DF91CF911F910F91FF90EF90DF90CF9084
:10206000BF90AF909F908F907F906F905F904F90B8
:1020700019948F929F92AF92BF92CF92DF92EF927C
:10208000FF920F931F93CF93DF93EC015B014A0103
:102090006901E881F9810284F385E02D19959501A4
:1020A0002C0D3D1D21503109E881F9810488F58905
:1020B000E02D78018401A401B501CE011995E881D4
:1020C000F9810688F789E02DCE01DF91CF911F912C
:1020D0000F91FF90EF90DF90CF90BF90AF909F90C7
:1020E0008F9019948F929F92AF92BF92CF92DF926E
:1020F000EF92FF920F931F93CF93DF93EC015B015D
:102100004A0169017801E881F9810284F385E02DB3
:102110001995C80CD91C860101501109E881F98173
:102120000488F589E02D9501A401B501CE0119952A
:10213000E881F9810688F789E02DCE01DF91CF9102
:102140001F910F91FF90EF90DF90CF90BF90AF90D5
:102150009F908F9019940895EF92FF920F931F9381
:10216000DC01ED91FC9100A0F1A1E02D19951F91EA
:102170000F91FF90EF9008950F931F93DC01ED9165
:10218000FC91068CF78DE02D19951F910F91089504
:102190000F931F93DC01ED91FC91048CF58DE02DE4
:1021A00019951F910F910895DC01ED91FC91008428
:1021B000F185E02D19942F923F924F925F926F928A
:1021C0007F928F929F92AF92BF92CF92DF92EF92C7
:1021D000FF920F931F93CF93DF9300D000D0CDB722
:1021E000DEB72C017E836D836A015901C801FC8230
:1021F000EB824801841A950A97FE03C0919481945A
:10220000910835012D813E81621A730A77FE03C061
:10221000719461947108681479045CF43A2D2B2D43
:102220005C01832F922F3D812E81DE82CD82C32ED1
:10223000D22EAD81BE81AA16BB065CF43C2D2D2D9D
:102240006C01832F922F3D812E81BE82AD82A32E01
:10225000B22E85012D813E81021B130B1C012C180F
:102260003D0837FE03C0319421943108780117FFEF
:1022700003C03FEFE31AF30AF594E794C816D906B2
:102280002CF08FEF9FEF9A83898304C0A1E0B0E028
:10229000BA83A9832D813E81A216B30624F1D2010F
:1022A000ED91FC910484F585E02D2B813C8168142F
:1022B000790424F44D815E81B60103C0A6016D81CD
:1022C0007E81C2011995E218F308F7FE06C0298144
:1022D0003A81C20ED31EE00EF11E8D819E810196C1
:1022E0009E838D83D7CF26960FB6F894DEBF0FBEA0
:1022F000CDBFDF91CF911F910F91FF90EF90DF90B5
:10230000CF90BF90AF909F908F907F906F905F9095
:102310004F903F902F90089540915103262F30E029
:10232000240F311D21323105DCF42091B603243015
:10233000C9F4FC0180E090E0861758F43091510315
:102340002191DC01AF5CBC4FA30FB11D2C93019612
:10235000F3CF80915103680F6093510380E008959B
:1023600081E0089582E0089508950895E0917A0348
:1023700080917903E81730F4F0E0E05FFC4F808152
:1023800090E008958FEF9FEF089590917A038091E8
:102390007903981750F4E92FF0E0E05FFC4F2081BB
:1023A00030E09F5F90937A0302C02FEF3FEFC901A7
:1023B00008958091790390E020917A03821B91091E
:1023C0000895CF92DF92EF92FF920F931F93CF93D6
:1023D000DF937C01CB018A012091BC03222389F089
:1023E000EB016B01C40ED51ECC15DD0569F06991BA
:1023F000D701ED91FC910190F081E02DC701199575
:10240000F3CF642F0E948C11C801DF91CF911F91EF
:102410000F91FF90EF90DF90CF900895CF93DF93CF
:102420001F92CDB7DEB769832091BC032223D1F080
:102430002091DF03203240F021E030E0FC013383C3
:10244000228380E090E015C08091BD03E82FF0E08A
:10245000E254FC4F998190838F5F8093BD038093FA
:10246000DF0305C061E0CE0101960E948C1181E07E
:1024700090E00F90DF91CF910895089580E090E073
:10248000089560917B0370917C0380917D0390910E
:102490007E0320E536E24EE25EE30E942D2F60933C
:1024A0007B0370937C0380937D0390937E03089558
:1024B0000E944A320F931F93CF93DF93DC0156960D
:1024C000EC915697E23071F0E330E9F0E13079F5C4
:1024D000FB0114960D90BC91A02DA41BB50BA21B63
:1024E000B30B18C0EC01EC81FD81E61BF70BBF01BB
:1024F00061507109EE81FF81DF01A41BB50BAD01B5
:10250000421B530B14C0DA01EC01EE81FF81E61B84
:10251000F70B3197F7FD0DC0EC014E815F81E41799
:10252000F5073CF4AF01BD010E941A1F02C00E94D2
:10253000811FDF91CF911F910F9108950F931F93EA
:10254000DC015696EC915697E23061F0E33009F1E8
:10255000E13081F51496ED91FC911597E41BF50B94
:10256000319723C0DC011496ED91FC911597DF01A2
:10257000A61BB70BBD01DC011696ED91FC911797D8
:10258000DF01A41BB50BAD0141505109621B730B58
:1025900011C0FA01DC0116964D915C911797DA0192
:1025A000A61BB70BBD01621B730BAB01BF010E94E1
:1025B000811F0CC057FD0AC0DC011696ED91FC91FD
:1025C00017974E175F0714F40E941A1F1F910F915F
:1025D00008958F929F92AF92CF92EF92FF920F93B6
:1025E0001F93CF93DF93EC01262F898D9A8D00974F
:1025F00009F042C06A3059F41D861C862D898E85EB
:102600009F8538E0239F800D911D112443C06D30BC
:1026100009F4AAC08F898823C9F03C898C859D85DF
:1026200046E0349F800D911D112448855985481737
:10263000590764F41D861C863D898E859F8548E078
:10264000349F800D911D11249F878E87EA88FB8817
:10265000088919894E855F856C857D85AD88CC8814
:10266000CE010E94E61C2C898C859D8536E0239F37
:10267000800D911D11243EC06A3079F41D861C86A0
:102680002D89FC013896E4918E859F852E9F800DC3
:10269000911D11249F878E8767C06D3009F464C037
:1026A000FC0134963491631708F45EC03296E491CD
:1026B000E61708F459C0462F431B342FFC0132960D
:1026C0008590949047E0349F800C911C1124F40174
:1026D000329634913196E491332311F0E1110DC01B
:1026E000F4013496E4912C898C859D85E29F800DC0
:1026F000911D11249D878C8737C0F4013596449134
:102700005F89552319F15C89E32FF0E0E40FF11D97
:1027100047FDFA955E9FB0015F9F700D11244C85B7
:102720005D85460F571F688579856417750774F4B2
:102730001D861C863D89FC013896E4918E859F8517
:102740003E9F800D911D11249F878E87EA88FB880C
:10275000088919894E855F856C857D85AD88CC8813
:10276000CE010E94E61CBCCF81E090E0DF91CF91CA
:102770001F910F91FF90EF90CF90AF909F908F900F
:102780000895FC01248135816217730720F480814C
:102790009181009729F41092740384E793E00895DF
:1027A000860F971F08950F931F93CF93DF93EC012C
:1027B00088819981009729F02A813B812617370764
:1027C00088F48B016F5F7F4F0E946531009761F045
:1027D000998388831B830A832C813D81232B11F4E9
:1027E000FC01108281E001C080E0DF91CF911F9158
:1027F0000F910895EF92FF920F931F93CF93DF9362
:10280000EC017B018A01BA010E94D313288139812E
:1028100081110DC02115310519F0C9010E94DC306C
:10282000198218821D821C821B821A8206C01D8397
:102830000C83B701C9010E945F32CE01DF91CF91B5
:102840001F910F91FF90EF900895FC01808191817D
:10285000009711F00C94DC3008950F931F93CF93E1
:10286000DF9300D000D0CDB7DEB780EE93E00E94BA
:10287000870D181619060CF075C080EE93E00E94C3
:10288000870D181619063CF580EE93E00E94650D41
:1028900089831A8200915E0510915F050F5F1F4FBB
:1028A000B8018AE595E00E94D313882331F3209183
:1028B0005A0530915B0580915E0590915F05BE01E0
:1028C0006F5F7F4F820F931F0E945F3210935F05EF
:1028D00000935E05D2CF0E94CE1C60E070E08AE5D6
:1028E00095E00E94C113FC0180818134F1F060E029
:1028F00070E08AE595E00E94C113FC01808182347A
:10290000A1F060E070E08AE595E00E94C113FC014F
:102910008081833451F060E070E08AE595E00E94A8
:10292000C113FC0180818434E9F41A8219821C826B
:102930001B821E821D8260915A0570915B05611594
:10294000710541F040915E0550915F05CE01019601
:102950000E94FA13CE0101960E94AF23CE01019688
:102960000E94251426960FB6F894DEBF0FBECDBF89
:10297000DF91CF911F910F9108950E949D0D8111BC
:1029800021C080E090E0892B41F080E090E0892B2D
:1029900021F00E940000811118C080E090E0892B96
:1029A00041F080E090E0892B21F00E94000081112D
:1029B0000FC080E090E0892B81F00E94930D81117F
:1029C0000AC008950E942D14DCCF0E940000E5CFBC
:1029D0000E940000EECF0C94000008951F920F9209
:1029E0000FB60F9211240BB60F922F933F934F9374
:1029F0005F936F937F938F939F93AF93BF93EF9367
:102A0000FF93E0910E02F0910F021995FF91EF9163
:102A1000BF91AF919F918F917F916F915F914F91F6
:102A20003F912F910F900BBE0F900FBE0F901F90F4
:102A300018951F920F920FB60F9211240BB60F929A
:102A40002F933F934F935F936F937F938F939F93B6
:102A5000AF93BF93EF93FF93E0910C02F0910D02BF
:102A60001995FF91EF91BF91AF919F918F917F91B8
:102A70006F915F914F913F912F910F900BBE0F90EF
:102A80000FBE0F901F9018951F920F920FB60F92C6
:102A900011240BB60F922F933F934F935F936F9335
:102AA0007F938F939F93AF93BF93EF93FF93E091A7
:102AB0000202F09103021995FF91EF91BF91AF913E
:102AC0009F918F917F916F915F914F913F912F9146
:102AD0000F900BBE0F900FBE0F901F9018951F9276
:102AE0000F920FB60F9211240BB60F922F933F93B4
:102AF0004F935F936F937F938F939F93AF93BF9306
:102B0000EF93FF93E0910002F09101021995FF917C
:102B1000EF91BF91AF919F918F917F916F915F9155
:102B20004F913F912F910F900BBE0F900FBE0F90C2
:102B30001F9018951F920F920FB60F9211240BB68B
:102B40000F922F933F934F935F936F937F938F9346
:102B50009F93AF93BF93EF93FF93E0910A02F0919D
:102B60000B021995FF91EF91BF91AF919F918F91BA
:102B70007F916F915F914F913F912F910F900BBE7D
:102B80000F900FBE0F901F9018951F920F920FB6C7
:102B90000F9211240BB60F922F933F934F935F9395
:102BA0006F937F938F939F93AF93BF93EF93FF9315
:102BB000E0910802F09109021995FF91EF91BF9100
:102BC000AF919F918F917F916F915F914F913F91C5
:102BD0002F910F900BBE0F900FBE0F901F90189566
:102BE0001F920F920FB60F9211240BB60F922F93D4
:102BF0003F934F935F936F937F938F939F93AF9385
:102C0000BF93EF93FF93E0910602F09107021995AD
:102C1000FF91EF91BF91AF919F918F917F916F91B4
:102C20005F914F913F912F910F900BBE0F900FBE70
:102C30000F901F9018951F920F920FB60F921124AC
:102C40000BB60F922F933F934F935F936F937F93A6
:102C50008F939F93AF93BF93EF93FF93E091040201
:102C6000F09105021995FF91EF91BF91AF919F915E
:102C70008F917F916F915F914F913F912F910F9025
:102C80000BBE0F900FBE0F901F9018956115710528
:102C900079F0FB0101900020E9F73197AF01461B65
:102CA000570BDC01ED91FC910280F381E02D19942A
:102CB00080E090E008951F920F920FB60F921124BA
:102CC0000BB60F922F933F934F935F936F937F9326
:102CD0008F939F93AF93BF93EF93FF9380EE93E017
:102CE0000E94A70DFF91EF91BF91AF919F918F919E
:102CF0007F916F915F914F913F912F910F900BBEFC
:102D00000F900FBE0F901F9018951F920F920FB645
:102D10000F9211240BB60F922F938F939F93EF93E3
:102D2000FF93E091F003F091F1038081E091F603CD
:102D3000F091F70382FD12C090818091F9038F5FBB
:102D40008F732091FA03821751F0E091F903F0E0BC
:102D5000E052FC4F958F8093F90301C08081FF9171
:102D6000EF919F918F912F910F900BBE0F900FBEFF
:102D70000F901F9018951F920F920FB60F9211246B
:102D80000BB60F922F933F934F935F936F937F9365
:102D90008F939F93AF93BF93EF93FF938DE794E04F
:102DA0000E94A70DFF91EF91BF91AF919F918F91DD
:102DB0007F916F915F914F913F912F910F900BBE3B
:102DC0000F900FBE0F901F9018951F920F920FB685
:102DD0000F9211240BB60F922F938F939F93EF9323
:102DE000FF93E0918D04F0918E048081E091930433
:102DF000F091940482FD12C09081809196048F5FBF
:102E00008F7320919704821751F0E0919604F0E0BF
:102E1000E358FB4F958F8093960401C08081FF910A
:102E2000EF919F918F912F910F900BBE0F900FBE3E
:102E30000F901F90189508958EBD00000DB407FEE9
:102E4000FDCF8EB508951F93CF93DF93FC01858D41
:102E5000968D009729F1162FEF0121A131E03093D3
:102E6000BC032093DE031092BD031092DF03DC014C
:102E7000ED91FC910190F081E02D60E019958D8D30
:102E80009E8DDC01ED91FC910190F081E02D612F90
:102E900019958D8D9E8DDF91CF911F910C940D22F0
:102EA000A5A5B6A59C9183A9809589238C93838D34
:102EB000948D892B31F0862FDF91CF911F910C9447
:102EC0001C1728E030E080E8A1A5B2A591A9462F03
:102ED000482319F04C91942B03C04C919095942366
:102EE0009C93A3A5B4A54C9192A9942B9C93A3A5C4
:102EF000B4A54C9192A9909594239C9386952150CA
:102F0000310911F7DF91CF911F9108958CBD9DBDBF
:102F100008959B01AC0160E074E284EF90E00E94B0
:102F2000022FDA01C9014097A109B109B695A79509
:102F3000979587958093B80008951F93CF93DF935B
:102F4000EC01162F8D8D9E8D892B39F06DA97EA9F0
:102F50008FA998AD0E9489170FC08B8D9C8D892BEE
:102F600021F08EAD9FAD0E948617EFA5F8A9908144
:102F70008CA9809589238083111102C066EA01C063
:102F800067EACE010E9423178D8D9E8D892B49F013
:102F900069AD7AAD8BAD9CADDF91CF911F910C9453
:102FA0008917EFA5F8A990818CA9892B8083DF91DF
:102FB000CF911F9108951092B60381E08093B503DD
:102FC0001092900361E084E10E94362061E085E187
:102FD0000E943620E9EBF0E080818E7F8083808143
:102FE0008D7F808388E48093B80085E48093BC0063
:102FF0000895CF93DF9391E0909330038823B9F045
:10300000C091B800D091BA008091BC008A7B8093B7
:10301000BC0060E084E10E94362060E085E10E940F
:1030200036200E94DB17D093BA00C093B800DF911E
:10303000CF91089585ED8093BC008091B803909165
:10304000B903A091BA03B091BB030796A11DB11DAE
:1030500023E0B695A795979587952A95D1F7209166
:10306000BC0024FF1CC04091B8035091B90360918B
:10307000BA037091BB03452B462B472B81F3009776
:10308000A105B10541F025E32A95F1F7000001976C
:10309000A109B109E4CF8091B7030C94F9171092FC
:1030A000B60308951F920F920FB60F9211240BB61C
:1030B0000F922F933F934F935F936F937F938F93D1
:1030C0009F93AF93BF93EF93FF938091B900887F55
:1030D000803609F49CC068F5883209F45BC090F42E
:1030E000803109F454C038F4882309F4F6C08830DC
:1030F00009F44DC0F6C0883109F44CC0803209F49F
:103100005DC0EFC0803409F468C048F4803309F42E
:1031100055C0883309F0E5C08093B403D8C080352A
:1031200009F44FC0883509F45DC0883409F0D9C06E
:10313000D6C0883909F4C7C0A8F4883709F467C035
:1031400038F4883609F463C0803709F460C0C9C018
:10315000883809F4B8C0803909F45FC0803809F0B4
:10316000C0C05BC0803B09F486C038F4803A09F4E3
:1031700066C0883A09F47FC0B4C0803C09F4A7C097
:10318000883C09F4A4C0883B09F48AC0AAC0809195
:10319000910310C09091B3038091B203981770F51A
:1031A000E091B30381E08E0F8093B303F0E0EE561D
:1031B000FC4F80818093BB0085EC86C08093B40374
:1031C0008EC0E091B30381E08E0F8093B3038091B2
:1031D000BB00F0E0EE56FC4F80839091B3038091EA
:1031E000B2036EC0E091B30381E08E0F8093B3030E
:1031F0008091BB00F0E0EE56FC4F80838091B503D8
:1032000081116DC081E08093900384EA61C083E006
:103210008093B60310927303CFCF809173038032F3
:1032200008F051C0E091730381E08E0F8093730327
:103230008091BB00F0E0ED5AFC4F8083BDCF85EC60
:103240008093BC001092B60380917303803230F4F7
:10325000E0917303F0E0ED5AFC4F1082609173032C
:1032600070E0E0917503F091760383E593E01995A2
:103270001092730336C084E08093B6031092520319
:1032800010925103E0917703F091780319958091A2
:103290005103811105C081E08093510310923103E5
:1032A000E091520381E08E0F80935203F0E0EF5CD7
:1032B000FC4F80818093BB00909152038091510319
:1032C000981708F479CF85E88093BC000AC085EC94
:1032D0008093BC001092B60304C01092B4030E9405
:1032E0001A18FF91EF91BF91AF919F918F917F91AC
:1032F0006F915F914F913F912F910F900BBE0F9067
:103300000FBE0F901F901895DF92EF92FF920F93D0
:103310001F93CF93DF938091370590913805892BC8
:1033200059F060914F057091500580915105909131
:1033300052050E94891716C0809135059091360577
:10334000892B31F080915805909159050E9486177C
:10335000E0914905F0914A05908180914E05809554
:103360008923808365E086EE99E10E94F9226091CD
:103370001E0561508AE195E00E94231720912005E7
:1033800030912105C901079697FD079623E0959591
:1033900087952A95E1F720911E0530911F05829FA0
:1033A0008001839F100D929F100D1124C09139054B
:1033B000D0913A0580913705909138050C0F1D1F6B
:1033C000009709F451C020913B0531E03093BC03D4
:1033D0002093DE031092BD031092DF03DC01ED9118
:1033E000FC910190F081E02D60E41995EE24E394C6
:1033F000F12CDD24D39480913705909138050C177A
:103400001D0779F1B0E2EB16F104D8F00E940D220D
:1034100080913B05D092BC038093DE031092BD03E4
:103420001092DF038091370590913805DC01ED9112
:10343000FC910190F081E02D60E41995EE24E39475
:10344000F12C80913705909138056991DC01ED915F
:10345000FC910190F081E02D1995BFEFEB1AFB0A6A
:10346000CACF0E940D2241C0E0914705F091480566
:10347000908180914D05892B80830C171D07A9F140
:1034800089912091350530913605232B19F00E9442
:103490001C17F3CF28E030E040E8E0914305F091BD
:1034A000440590914B05582F542319F05081952BCA
:1034B00003C05081909595239083E0914505F0914C
:1034C0004605508190914C05952B9083E0914505E0
:1034D000F0914605508190914C05909595239083ED
:1034E000469521503109C9F6C8CF80913705909192
:1034F0003805892B89F060915305709154058091AE
:10350000550590915605DF91CF911F910F91FF9036
:10351000EF90DF900C948917E0914905F0914A05EE
:10352000908180914E05892B808380913505909103
:103530003605892B49F0DF91CF911F910F91FF90B4
:10354000EF90DF900C941B17DF91CF911F910F919B
:10355000FF90EF90DF9008950F931F93CF93DF9329
:103560008C01C0E0D0E0F801EC0FFD1F64916623F0
:1035700041F08AE195E00E94E912892B11F0219631
:10358000F2CF60E073E08AE195E00E9446168C0F6E
:103590009D1FDF91CF911F910F9108952F923F9220
:1035A0004F925F926F927F928F929F92AF92BF9253
:1035B000CF92DF92EF92FF920F931F93CF93DF93FF
:1035C00000D01F92CDB7DEB77C018B015C834B83AB
:1035D00081E090E05C01A41AB50A1A0131942194AB
:1035E0003108220C331C460F571F21E030E0B70191
:1035F0008AE195E00E94D410A8012B813C81421BF6
:10360000530B21E030E0B7018AE195E00E94D4102D
:103610006B817C816E0D7F1D21E030E0A8018AE185
:1036200095E00E94D410B7018B819C81681B790BB7
:1036300021E030E0A8018AE195E00E94D410C12C7D
:10364000D12C21E030E03A8329838B819C81C816FC
:10365000D9060CF073C0B7FC08C001979C838B831C
:1036600092E0290E311CA20CB31C2FEFC21AD20A11
:1036700089819A8102969A838983A80EB91E37019F
:103680006C0C7D1C21E030E08B809C80800E911EB4
:10369000A401B3018AE195E00E94D41027014C18DF
:1036A0005D0821E030E0A401B2018AE195E00E94CA
:1036B000D41021E030E048018B819C81881A990A5E
:1036C000A401B3018AE195E00E94D41021E030E02A
:1036D000A401B2018AE195E00E94D4104601800E57
:1036E000911E21E030E0A4016B807C806E0C7F1C79
:1036F000B3018AE195E00E94D41021E030E0A401FA
:1037000027018B819C81481A590AB2018AE195E010
:103710000E94D41048018C189D0821E030E0A401DB
:10372000B3018AE195E00E94D41021E030E0A401C9
:10373000B2018AE195E00E94D41087CF0F900F90DC
:103740000F900F90DF91CF911F910F91FF90EF900D
:10375000DF90CF90BF90AF909F908F907F906F90B1
:103760005F904F903F902F9008952F923F924F92ED
:103770005F926F927F928F929F92AF92BF92CF9201
:10378000DF92EF92FF920F931F93CF93DF93CDB70A
:10379000DEB7A4970FB6F894DEBF0FBECDBF4B01C6
:1037A0005C019B01AC010E943F30882319F063E06B
:1037B00073E01AC075016401E894F7F82FEF3FEF4A
:1037C0004FE75FE7C701B6010E943F30811112C089
:1037D0002FEF3FEF4FE75FE7C701B6010E94DE2DF5
:1037E000181644F467E073E08DE794E00E944616F3
:1037F0008C01B3C02FEF3FEF4FE75FE4C501B40189
:103800000E943A3018161CF46BE073E0EDCF2FEFF6
:103810003FEF4FE75FECC501B4010E94DE2D87FD4D
:10382000F3CF20E030E0A901C501B4010E94DE2DF4
:1038300087FF0BC06DE28DE794E00E94C90D6C011B
:10384000B7FAB094B7F8B09402C0C12CD12C2AE0DA
:1038500037ED43EA5BE3C501B4010E942D2F4B0114
:103860005C010E940B302B013C010E94E32D9B0167
:10387000AC01C501B4010E942C2F4B015C0119A2BF
:103880007E0181E2E80EF11CEAA2FBA2C301B201B3
:103890002AE030E040E050E00E94022F29013A0186
:1038A000605DF70162937F01232B242B252B71F799
:1038B000BF018DE794E00E9446168C016EE28DE711
:1038C00094E00E94C90D800F911F8C010C0D1D1DED
:1038D00083E0F82E9AE0292E312C412C512CFA94B9
:1038E000FF20D9F120E030E040E251E4C501B4010D
:1038F0000E94442E4B015C010E940B309B0140E072
:1039000050E019A26AA07BA06CA3C32ED42EE52E92
:10391000CA01B901A20191010E94022F605DF30169
:1039200062933F01211531054105510589F7BF011A
:103930008DE794E00E944616080F191F6CA17C2D9C
:103940008D2D9E2D0E94E32D9B01AC01C501B4017C
:103950000E942C2F4B015C01C2CF60E073E08DE729
:1039600094E00E944616800F911FA4960FB6F8941B
:10397000DEBF0FBECDBFDF91CF911F910F91FF90A2
:10398000EF90DF90CF90BF90AF909F908F907F90FF
:103990006F905F904F903F902F900895CF93DF935B
:1039A000EAE5F5E044815581608171818DE794E01D
:1039B0000E942C0DEC0160E073E08DE794E00E9422
:1039C00046168C0F9D1FDF91CF9108952F923F9245
:1039D0004F925F926F927F928F929F92AF92BF921F
:1039E000CF92DF92EF92FF920F931F93CF93DF93CB
:1039F000CDB7DEB76B970FB6F894DEBF0FBECDBF65
:103A00009B8F8A8F1B014A01D22E198708873701A5
:103A1000A982DC0159962D913C915A9721153105C7
:103A200009F0FFC018968D919C9119976817790736
:103A30000CF0E7C11A968D919C911B974817590776
:103A40000CF0DFC1EC2DF0E0FB83EA839B0146E044
:103A5000C49E200D311D11243D872C87121613069C
:103A60000CF0CFC16A2D70E07B876A8783E0660F18
:103A7000771F8A95E1F77F876E87CB01880D991DA7
:103A8000181619060CF0BDC158968C91811104C00E
:103A90008FEA8D1508F4D394AA8DBB8DED91FC911E
:103AA00011970284F385E02DCD011995B5E0DB9ED9
:103AB000C0011124EC2DF0E0F98BE88B91012B5F14
:103AC0003F4F3B8B2A8B3D822C822101AC01421956
:103AD00053095D8B4C8B7981672F70E07F8B6E8BE8
:103AE000C4010896998F888FEC89FD89E40DF51D36
:103AF000EA51FB4ED49054019F828E82D0FE16C0B4
:103B0000AA8DBB8DED91FC91B1E0CB1209C029814A
:103B1000213031F40484F585E02D2885398519C0DC
:103B20000684F785E02DE884F9841DC04885598511
:103B30004615570519F1AA8DBB8DED91FC91B1E0A9
:103B4000CB120DC02981213051F40484F585E02D7C
:103B50009301A501B2018A8D9B8D19950FC0068432
:103B6000F785E02D73010A851B852A813B814E81F3
:103B70005F816C817D818A8D9B8D1995D6943FEFF5
:103B8000A31AB30A4E815F816E897F89460F571F42
:103B90005F834E83888D998DA816B90609F0AECF44
:103BA0009FEF491A590AAC81BD81E889F989AE0FA6
:103BB000BF1FBD83AC832A893B894216530609F097
:103BC00093CF488559854615570509F4F8C0AA8D45
:103BD000BB8DED91FC91B1E0CB1211C02981213058
:103BE00071F4B1016B5F7F4F0088F189E02D830193
:103BF00028E030E0A4018A8D9B8D1995E0C06C858A
:103C00007D854A815B81641B750B0684F785E02DF9
:103C100073010E851F859A01A4018A8D9B8D1995CC
:103C2000CEC0F9013496E491DE1AF90132968591FD
:103C30009491B7E0DB9E800D911D1124F90125912F
:103C400034913B8B2A8BFC01259134915901FC0165
:103C500032965490319634913C87329674903196D6
:103C6000149141E04C1518F05981523068F0672DDD
:103C7000072C000C770B7D836C83812F012E000CA9
:103C8000990B9B838A8304C01B821A821D821C822B
:103C9000AA8DBB8DED91FC9111970284F385E02DE7
:103CA000CD011995412CD12C612CF981EF2FF0E039
:103CB000FF83EE832C2D30E03B872A87A401410F40
:103CC000511D17FD5A955F8B4E8BB101670D711D0C
:103CD00077FC7A95798F688F7C85671608F06FC0BE
:103CE000262D30E04A815B81420F531FAE81BF8198
:103CF000A49FC001A59F900DB49F900D1124F401C5
:103D0000E80FF91FF98BE88B842D712C4E895F89A0
:103D1000420F531F5D8B4C8B751408F04DC051E062
:103D2000580F5E87877041F4C5010196EA89FB89C7
:103D3000EA0DFB1DD4905C01D7FE3AC061E0C612CB
:103D400016C07981713099F4AA8DBB8DED91FC91EB
:103D500011970484F585E02D288539854C895D8986
:103D6000688D798D670D711DCD01199521C08C81EC
:103D70009D81870D911DEA85FB858E9FB0018F9FE8
:103D8000700D9E9F700D1124620D731DAA8DBB8D49
:103D9000ED91FC9111970684F785E02DE884F98474
:103DA0000E811F812A853B8548895989CD01199546
:103DB000DD0C73948E85B0CF450C63948DCFAA8DA6
:103DC000BB8DED91FC9111970688F789E02DCD010F
:103DD0006B960FB6F894DEBF0FBECDBFDF91CF91CB
:103DE0001F910F91FF90EF90DF90CF90BF90AF9019
:103DF0009F908F907F906F905F904F903F902F900B
:103E000019946B960FB6F894DEBF0FBECDBFDF914D
:103E1000CF911F910F91FF90EF90DF90CF90BF90C7
:103E2000AF909F908F907F906F905F904F903F905A
:103E30002F9008950F931F93CF93DF9377FF04C0C4
:103E4000260F371F60E070E0DC011496CD91DC9105
:103E50001597FB01E20FF31FCE17DF071CF49E013D
:103E6000261B370B121613060CF046C0FA0157FD3D
:103E70003796DF01E3E0B595A795EA95E1F7AC9FAA
:103E8000F001AD9FF00DBC9FF00D11246E0F7F1F50
:103E9000DC015F96ED91FC919097E60FF71F47705C
:103EA000552781E090E001C0880F4A95EAF7482F36
:103EB0000130110539F078F002301105E9F42E0FC8
:103EC0003F1F13C02E0F3F1FE217F307A9F0808199
:103ED000842B8193F9CF80952E0F3F1FE217F307B4
:103EE00059F0908198239193F9CFE217F30721F0CD
:103EF000808184278193F9CFDF91CF911F910F911A
:103F00000895EF92FF920F931F93CF93DF93EC01ED
:103F100077FDA5C0EC80FD806E157F050CF09FC07D
:103F200057FF04C0240F351F40E050E08E819F8171
:103F3000FA01E20FF31F8E179F071CF49C01241B4C
:103F4000350B121613060CF08AC0922F842F86951B
:103F5000869586958E9DD0018F9DB00D11246A0F98
:103F60007B1FAF8DB8A1A60FB71F4770B1F188E0D6
:103F7000841B482F682F70E0FB01E252FB4EE49156
:103F8000281798F4621B71092FEF30E002C03595B5
:103F900027956A95E2F7E2230130110549F078F0A0
:103FA0000230110509F05BC00EC00130110519F493
:103FB0008C91E82B0AC00130110508F049C0E0954A
:103FC0008C91E82302C08C91E827EC93941708F4B5
:103FD00046C02C813D81A20FB31FE92FE41BE830BE
:103FE000F8F00230110561F48E2F9C9190959C930E
:103FF0002C813D81A20FB31F88508830B0F70FC0CD
:1040000081E00115110509F480E081959E2F8C93C4
:104010002C813D81A20FB31F98509830C0F7E770F4
:10402000EE23E9F0F0E0EA52FB4EE4910130110595
:1040300039F048F00230110591F48C91E82706C060
:104040008C91E82B03C0E0958C91E823EC9307C09A
:104050000230110509F4B7CFAE0DBF1DBECFDF9101
:10406000CF911F910F91FF90EF900895362F90E020
:10407000FC01E057FB4E4491FC01E65BFB4E2491B2
:10408000FC01EC5FFB4E9491992309F46CC044232E
:1040900009F455C050E0FA013197E231F10508F01A
:1040A0004EC08827EE58FF4F8F4F0C94242F8091DD
:1040B00080008F7707C0809180008F7D03C0809142
:1040C0008000877F809380003AC084B58F7702C0DC
:1040D00084B58F7D84BD33C08091B0008F7703C0DD
:1040E0008091B0008F7D8093B00029C080919000B6
:1040F0008F7707C0809190008F7D03C080919000E2
:10410000877F809390001BC08091A0008F7707C0AD
:104110008091A0008F7D03C08091A000877F809355
:10412000A0000DC0809120018F7707C080912001F1
:104130008F7D03C080912001877F80932001E92F2C
:10414000F0E0EE0FFF1FE651FC4EA591B4919FB732
:10415000F894311104C08C912095282302C0EC9171
:104160002E2B2C939FBF0895CF93DF9390E0FC01FB
:10417000E65BFB4E2491FC01EC5FFB4E84918823AF
:1041800061F190E0880F991FFC01E053FC4EC5914E
:10419000D491FC01E651FC4EA591B491611109C086
:1041A0009FB7F8948881209582238883EC912E23F1
:1041B0000BC0623061F49FB7F8948881322F30953C
:1041C00083238883EC912E2B2C939FBF06C08FB73F
:1041D000F894E8812E2B28838FBFDF91CF9108952B
:1041E0008F929F92AF92BF92CF92DF92EF92FF9207
:1041F0006B017C010E946A254B015C01C114D10452
:10420000E104F104F1F00E946A25DC01CB01881978
:104210009909AA09BB09883E9340A105B10570F32D
:1042200021E0C21AD108E108F10888EE880E83E087
:10423000981EA11CB11CC114D104E104F10419F7AA
:10424000DDCFFF90EF90DF90CF90BF90AF909F9029
:104250008F900895FC01A089B18982E08C93A48598
:10426000B5851C92A685B78580E18C93108EA489B4
:10427000B58986E08C93A289B3898C9180618C93F7
:10428000A289B3898C9188608C93A289B3898C911F
:1042900080688C930288F389E02D80818F7D8083F4
:1042A00008952091200530912105C901079697FDB9
:1042B000079623E0959587952A95E1F720911E05AD
:1042C00030911F05829FA001839F500D929F500D3A
:1042D000112460E070E08091390590913A050C94CA
:1042E0005832CF93DF93BC018DE794E00E944616CD
:1042F000EC0160E073E08DE794E00E9446168C0FBD
:104300009D1FDF91CF9108953F924F925F926F92E0
:104310007F928F929F92AF92BF92CF92DF92EF9255
:10432000FF920F931F93CF93DF93CDB7DEB72897FC
:104330000FB6F894DEBF0FBECDBF4C017E836D83F8
:104340002A013901C801079697FD07969C0193E061
:10435000359527959A95E1F73C832B83A12CB12CB9
:10436000C12CD12C312CC2018C0D9D1D9A838983C7
:10437000CE14DF04D4F518861F822F8138852017CC
:1043800031075CF5C90187709927892B11F0330C2F
:104390000EC0EF81F885F7FD379683E0F595E79538
:1043A0008A95E1F7EA0DFB1DE60DF71D349037FE07
:1043B0000DC021E030E049815A816D817E818F817D
:1043C0009885680F791FC4010E94D4102F81388509
:1043D0002F5F3F4F38872F83D0CF3FEFC31AD30AC9
:1043E0008B819C81A80EB91EBECF28960FB6F8947B
:1043F000DEBF0FBECDBFDF91CF911F910F91FF9018
:10440000EF90DF90CF90BF90AF909F908F907F9074
:104410006F905F904F903F9008958F929F92AF92D0
:10442000BF92CF92DF92EF92FF920F931F93CF93A1
:10443000DF931091DF03113208F0C2C0D091DE0388
:104440000E946A256B017C01C091B603CC2311F157
:104450008091B8039091B903A091BA03B091BB03C6
:10446000892B8A2B8B2B81F30E946A258090B803BD
:104470009090B903A090BA03B090BB03DC01CB01CC
:104480008C199D09AE09BF0988169906AA06BB06B4
:10449000D8F682C082E08093B60381E08093B503B2
:1044A0008FEF8093B4031092B3031093B203AEEB7B
:1044B000B3E0E2E9F3E080E0181721F09D919193D9
:1044C0008F5FFACF10929103909191038D2F880FF7
:1044D000892B8093910380919003813089F510920C
:1044E00090030E946A256B017C0180919103809367
:1044F000BB008091B8039091B903A091BA03B09129
:10450000BB03892B8A2B8B2BA9F00E946A25009173
:10451000B8031091B9032091BA033091BB03DC01B9
:10452000CB018C199D09AE09BF09081719072A0785
:104530003B0790F18091BC0083FDD7CF85EC01C093
:1045400085EE8093BC000E946A256B017C018091FE
:10455000B603823039F58091B8039091B903A091E8
:10456000BA03B091BB03892B8A2B8B2B81F30E945A
:104570006A250091B8031091B9032091BA033091D4
:10458000BB03DC01CB018C199D09AE09BF090817DB
:1045900019072A073B07D8F68091B7030E94F9173D
:1045A000C5E013C08091B4038F3F79F08091B403CC
:1045B000803241F08091B403803331F0C4E005C013
:1045C000C1E003C0C2E001C0C3E01092BD0310927D
:1045D000DF031092BC038C2FDF91CF911F910F91BD
:1045E000FF90EF90DF90CF90BF90AF909F908F9013
:1045F0000895EF92FF920F931F93CF93DF937C0167
:10460000C62F8091370590913805009709F459C05D
:1046100020913B0531E03093BC032093DE031092E0
:10462000BD031092DF03DC01ED91FC910190F0815C
:10463000E02D60E019958701EE24E394F12CD1E0A0
:104640008091370590913805CC2399F1B0E2EB16B3
:10465000F104D8F00E940D2280913B05D093BC0359
:104660008093DE031092BD031092DF038091370523
:1046700090913805DC01ED91FC910190F081E02DE5
:1046800060E01995EE24E394F12C80913705909128
:104690003805F8016491DC01ED91FC910190F08105
:1046A000E02D1995BFEFEB1AFB0AC1500F5F1F4FAA
:1046B000C7CFDF91CF911F910F91FF90EF900C9496
:1046C0000D22E0914705F0914805908180914D05BC
:1046D0008095892380838701CC2309F439C0F801B0
:1046E00084912091350530913605232B31F00E94BD
:1046F0001C17C1500F5F1F4FEFCF28E030E040E89C
:10470000E0914305F091440590914B05582F5423B7
:1047100019F05081952B03C050819095952390837B
:10472000E0914505F0914605508190914C05952BFF
:104730009083E0914505F0914605508190914C059C
:10474000909595239083469521503109C9F6D1CF94
:10475000DF91CF911F910F91FF90EF9008954F92AD
:104760005F926F927F928F929F92AF92BF92EF92E1
:10477000FF920F931F93CF93DF93EC0182E0E82E1B
:10478000F12C01E010E0B80161507109CE010E94E6
:10479000C113FC018081823409F4A1C00CF04EC029
:1047A000813409F031C1B801CE010E94C113FC016E
:1047B0006081062E000C770B60537109072E000CE8
:1047C000880B990B0E94E52D4B015C0160938003DF
:1047D000709381038093820390938303B701CE018A
:1047E0000E94C113FC016081062E000C770B605300
:1047F0007109072E000C880B990B0E94E52D2B01E7
:104800003C0120E030E040E251E4C501B4010E94E7
:10481000442E9B01AC01C301B2010E942D2F20E068
:1048200030E048EC52E40E94992F6093800370932B
:1048300081038093820390938303E6C0833409F459
:1048400099C0843409F0E0C0B801CE010E94C113C0
:10485000FC016081062E000C770B60537109072E56
:10486000000C880B990B0E94E52D4B015C016093B5
:104870008C0370938D0380938E0390938F03B70105
:10488000CE010E94C113FC016081062E000C770B43
:1048900060537109072E000C880B990B0E94E52DBF
:1048A0002B013C0120E030E040E251E4C501B401BD
:1048B0000E94442E9B01AC01C301B2010E942D2F26
:1048C00020E030E048EC52E40E94992F60938C0382
:1048D00070938D0380938E0390938F0395C0B801DE
:1048E000CE010E94C113FC016081062E000C770BE3
:1048F00060537109072E000C880B990B0E94E52D5F
:104900004B015C016093840370938503809386035D
:1049100090938703B701CE010E94C113FC0160810F
:10492000062E000C770B60537109072E000C880BC4
:10493000990B0E94E52D2B013C0120E030E040E284
:1049400051E4C501B4010E94442E9B01AC01C30196
:10495000B2010E942D2F20E030E048EC52E40E948A
:10496000992F6093840370938503809386039093BB
:1049700087034AC0B801CE010E94C113FC016081C7
:10498000062E000C770B60537109072E000C880B64
:10499000990B0E94E52D4B015C0160938803709395
:1049A000890380938A0390938B03B701CE010E9401
:1049B000C113FC016081062E000C770B6053710956
:1049C000072E000C880B990B0E94E52D2B013C0152
:1049D00020E030E040E251E4C501B4010E94442EE1
:1049E0009B01AC01C301B2010E942D2F20E030E0F9
:1049F00048EC52E40E94992F6093880370938903D6
:104A000080938A0390938B030D5F1F4FF3E0EF0EAB
:104A1000F11C0D30110509F0B6CEDF91CF911F9139
:104A20000F91FF90EF90BF90AF909F908F907F90ED
:104A30006F905F904F900895809137059091380561
:104A4000892B59F060914F05709150058091510567
:104A5000909152050E94891716C08091350590915A
:104A60003605892B31F080915805909159050E94A7
:104A70008617E0914905F0914A05908180914E0595
:104A80008095892380836EE28AE195E00E94231756
:104A90008091370590913805892B51F0609153052D
:104AA0007091540580915505909156050C94891785
:104AB000E0914905F0914A05908180914E05892B3E
:104AC00080838091350590913605892B11F00C94E7
:104AD0001B1708953FB7F894809171059091720566
:104AE000A0917305B091740526B5A89B05C02F3F12
:104AF00019F00196A11DB11D3FBFBA2FA92F982F04
:104B00008827820F911DA11DB11DBC01CD0142E07E
:104B1000660F771F881F991F4A95D1F708951F9236
:104B20000F920FB60F9211242F933F938F939F9361
:104B3000AF93BF9380916D0590916E05A0916F0525
:104B4000B091700530916C0523E0230F2D3720F4D0
:104B50000196A11DB11D05C026E8230F0296A11DD7
:104B6000B11D20936C0580936D0590936E05A09305
:104B70006F05B09370058091710590917205A091B9
:104B80007305B09174050196A11DB11D8093710547
:104B900090937205A0937305B0937405BF91AF9184
:104BA0009F918F913F912F910F900FBE0F901F906B
:104BB00018958EE392E090931B0580931A058091DF
:104BC000390590913A05009711F00E94DC308AE592
:104BD00095E00C942514CF93DF93CDB7DEB76A9799
:104BE0000FB6F894DEBF0FBECDBF789484B5826057
:104BF00084BD84B5816084BD85B5826085BD85B581
:104C0000816085BD80916E00816080936E001092FE
:104C10008100809181008260809381008091810079
:104C2000816080938100809180008160809380000A
:104C30008091B10084608093B1008091B000816068
:104C40008093B00080919100826080939100809168
:104C500091008160809391008091900081608093A9
:104C600090008091A10082608093A1008091A100BA
:104C700081608093A1008091A00081608093A0005A
:104C800080912101826080932101809121018160C6
:104C90008093210180912001816080932001809187
:104CA0007A00846080937A0080917A008260809399
:104CB0007A0080917A00816080937A0080917A00F6
:104CC000806880937A001092C1008DE794E00E9482
:104CD0002A2180EE93E00E942A2162E082E00E9475
:104CE000B42081E492E190930102809300028091CC
:104CF0006A00836080936A00EC9A809139059091F4
:104D00003A05892B11F52091200530912105C90123
:104D1000079697FD079623E0959587952A95E1F7E5
:104D200020911E0530911F05AC01429FC001439F99
:104D3000900D529F900D11240E94443090933A059B
:104D400080933905892B09F4F6C00E945121809186
:104D500020059091210560911E0570911F058132FB
:104D600091050CF4EAC3AC014054510957FF02C04D
:104D70004F5F5F4F559547956255710977FF02C0A8
:104D80006F5F7F4F7595679510E4E12EF12C02E57A
:104D900010E02EEC33E08AE195E00E94842182E06D
:104DA00080933C058091370590913805892B09F453
:104DB000DDC38CE380933B0510927A031092790354
:104DC0001092BD031092DF030E94DB1784EB91E188
:104DD000909378038093770385EB91E1909376032A
:104DE000809375038091420587FD1EC061E00E949B
:104DF000B42061E0809142050E94362061E070E0BD
:104E000080E090E00E94F02060E0809142050E94E6
:104E100036206AE070E080E090E00E94F02061E0DF
:104E2000809142050E943620809137059091380587
:104E3000892B09F45AC460914F05709150058091F7
:104E40005105909152050E94891764E08AEE91E025
:104E50000E94F9226091200561508AE195E00E944C
:104E6000231764E086EE91E00E94F92280913C05D0
:104E7000813009F451C464E18AE195E00E9423176E
:104E800064E082EE91E00E94F9228FE8809357055A
:104E900080911E0590911F058038910509F040C44E
:104EA00080912005909121058034910509F04AC434
:104EB00080913C05813009F431C48FEC8093570513
:104EC00012E16AED8AE195E00E942317612F8AE1E1
:104ED00095E00E94231761E88AE195E00E9423177C
:104EE000609157058AE195E00E94231769ED8AE1F8
:104EF00095E00E94231780913C05813009F424C479
:104F000061EF8AE195E00E94231766E08CED91E065
:104F10000E94F9228091370590913805892B09F478
:104F200015C4609153057091540580915505909179
:104F300056050E94891768EE73E080E090E00E94B9
:104F4000F02086E692E00E9471210E94512181E0CA
:104F500090E090932D0580932C0590932B058093E2
:104F60002A0561E08EE10E94B42061E08CE10E949C
:104F7000B42061E08AE10E94B42061E088E10E94EF
:104F8000B42061E086E10E94B420AA24A394B12C4D
:104F90008AE0682E712C80EE93E00E94870D18162F
:104FA00019060CF0C1C280EE93E00E94870D18161E
:104FB000190644F580EE93E00E94650D89831A82FC
:104FC000C0905E05D0905F055FEFC51AD50AB601A7
:104FD0008AE595E00E94D313882329F320915A058E
:104FE00030915B0580915E0590915F05BE016F5F1A
:104FF0007F4F820F931F0E945F32D0925F05C09255
:105000005E05D1CF0E94CE1C60E070E08AE595E09D
:105010000E94C113FC0180818134F9F060E070E0EE
:105020008AE595E00E94C113FC0180818234A9F0D9
:1050300060E070E08AE595E00E94C113FC01808188
:10504000833459F060E070E08AE595E00E94C11376
:10505000FC018081843409F05FC21A8219821C82AB
:105060001B821E821D8260915A0570915B0561153D
:10507000710541F040915E0550915F05CE010196AA
:105080000E94FA13CE0101960E94AF23CE01019631
:105090000E94251482E792E00E94712160918003B2
:1050A0007091810380918203909183030E94B51BCC
:1050B00060918403709185038091860390918703AA
:1050C0000E94B51B609188037091890380918A03C7
:1050D00090918B030E94B51B60918C0370918D039E
:1050E00080918E0390918F030E94B51B8091800365
:1050F00090918103A0918203B091830389839A8365
:10510000AB83BC838091840390918503A091860337
:10511000B09187038D839E83AF83B8878091880386
:1051200090918903A0918A03B0918B0389879A8714
:10513000AB87BC8780918C0390918D03A0918E03E7
:10514000B0918F038D879E87AF87B88B4EE150E07B
:105150005A8B498B8CE190E09C8B8B8BEAE1F0E0E1
:10516000FE8BED8B48E150E0588F4F8B61E086E17C
:105170000E94362081EB92E00E947121CE010196BF
:105180009A8F898F4E0191E1890E911CCC24C39492
:10519000D12C10927B0310927C0310927D0310920D
:1051A0007E03E98DFA8D2190319041905190FA8FD4
:1051B000E98F20E030E0A901C201B1010E94DE2D9B
:1051C0008111D7C268EE73E080E090E00E94F02089
:1051D000FFEFCF1ADF0A42E0840E911C55E0C5169E
:1051E000D104B9F660E086E10E94362080EF92E0BB
:1051F0000E9471210E945121C12CD12C8091220545
:105200009091230560912405709125056817790711
:105210000CF02FC39C0197FD2FC335952795C2161F
:10522000D3060CF42CC360ED77E080E090E00E94A0
:10523000F0208091220590912305C0902405D09004
:105240002505C816D9060CF033C36C0197FF03C0BF
:105250009FEFC91AD90AD594C7941C141D040CF4E5
:105260002DC360ED77E080E090E00E94F0200E9486
:10527000512181E080932E0580932F05B0922D055A
:10528000A0922C05B0922B05A0922A0570922705BA
:105290006092260510922905109228058EEB93E165
:1052A0000E94AC1A0E94841964E670E080E090E0ED
:1052B0000E94F0208091370590913805892B09F4E0
:1052C0001EC360914F0570915005809151059091DA
:1052D00052050E94891762E08BEA93E10E94F9224D
:1052E00060E08AE195E00E94231760E08AE195E0A2
:1052F0000E9423176FE08AE195E00E94231763E084
:1053000088EA93E10E94F92280913705909138054F
:10531000892B09F40BC3609153057091540580915A
:105320005505909156050E94891760ED77E080E061
:1053300090E00E94F0200E941C2568EE73E080E05F
:1053400090E00E94F0208091370590913805892BDC
:1053500009F4FFC260914F0570915005809151058D
:10536000909152050E94891762E080EB93E10E94C0
:10537000F92260E08AE195E00E94231760E08AE16B
:1053800095E00E9423176FE08AE195E00E942317C1
:1053900063E08DEA93E10E94F922809137059091B4
:1053A0003805892B09F4ECC26091530570915405BE
:1053B00080915505909156050E94891760ED77E020
:1053C00080E090E00E94F0200E941C2568EE73E0CF
:1053D00080E090E00E94F0208091370590913805A0
:1053E000892B09F4E0C260914F05709150058091BE
:1053F0005105909152050E94891762E086EB93E176
:105400000E94F922609120058AE195E00E9423170D
:1054100062E084EB93E10E94F92260E08AE195E08A
:105420000E94231760E08AE195E00E94231767E05D
:105430008AE195E00E94231762E082EB93E10E94EB
:10544000F9228091370590913805892B09F4C2C261
:1054500060915305709154058091550590915605C2
:105460000E94891760ED77E080E090E00E94F020D4
:105470008091370590913805892B09F4BEC260915F
:105480004F057091500580915105909152050E94F1
:10549000891762E08CEB93E10E94F922609120056C
:1054A0008AE195E00E94231762E08AEB93E10E9473
:1054B000F92260E08AE195E00E94231760E08AE12A
:1054C00095E00E94231767E08AE195E00E94231788
:1054D00062E088EB93E10E94F92280913705909178
:1054E0003805892B09F4A0C26091530570915405C9
:1054F00080915505909156050E94891760ED77E0DF
:1055000080E090E00E94F0200E941C2568EE73E08D
:1055100080E090E00E94F02040E050E062E073E024
:105520008AE595E00E94FA1368EE73E080E090E06F
:105530000E94F0200E94BD142ECDAC0140525109B2
:1055400057FF02C04F5F5F4F5595479563577109ED
:1055500077FF02C06F5F7F4F75956795F0E2EF2E82
:10556000F12C03E710E02EEE31E015CC61E08091E4
:1055700040050E94B42061E0809141050E94B42062
:1055800080914005082E000C990BFC01EC5FFB4E4E
:10559000E491F0E0EE0FFF1FE651FC4E25913491AF
:1055A0003093480520934705FC01E65BFB4EE491F0
:1055B000E0934D0580914105082E000C990BFC01EC
:1055C000EC5FFB4EE491F0E0EE0FFF1FE651FC4E66
:1055D000A591B491B0934A05A0934905FC01E65BFF
:1055E000FB4EE491E0934E058C91E82BEC93809177
:1055F000350590913605892B09F434C01FB7F8940E
:1056000080917F03811127C0E9E3F4E18491EFE702
:10561000F4E19491E82FF0E0EE0FFF1FE053FC4E11
:10562000A591B491EC91E92321F461E085E30E9416
:10563000362061E085E30E94B4208CB580618CBD8A
:105640008CB580648CBD61E084E30E94B42061E08D
:1056500083E30E94B42080917F038F5F80937F0358
:105660001FBFC0CB61E080913E050E94B42061E085
:1056700080913F050E94B42080913E05082E000CC9
:10568000990BFC01EC5FFB4EE491F0E0EE0FFF1F85
:10569000E651FC4E25913491309344052093430507
:1056A000FC01E65BFB4EE491E0934B0580913F05E6
:1056B000082E000C990BFC01EC5FFB4EE491F0E02E
:1056C000EE0FFF1FE651FC4EA591B491B093460535
:1056D000A0934505FC01E65BFB4EE491E0934C058D
:1056E0008C91E095E823EC937DCB809135059091EA
:1056F0003605892B31F080915805909159050E940B
:105700008617E0914905F0914A05908180914E05F8
:1057100080958923808399CB60E1AECB8FE9CECB96
:105720008036910579F4809120059091210540976C
:1057300049F480913C05813011F08FEA01C080E18D
:105740008093570512E0BDCB62E2DBCBE0914905C7
:10575000F0914A05908180914E05892B808380913C
:10576000350590913605892B09F4E5CB0E941B176E
:10577000E2CB0E945121F1E0F0932E05F0932F052A
:10578000B0922D05A0922C05B0922B05A0922A056F
:10579000709227056092260510922905109228051F
:1057A00086E993E10E94AC1A0E948419B0E4EB2EC2
:1057B000F12C00E810E043E0C416D10471F054E08D
:1057C000C516D10469F082E0C816D10419F024E5A9
:1057D00030E108C022E13DE005C020ED39E002C023
:1057E0002EE836E040E050E068E270E08AE195E0C3
:1057F0000E9484210E94841981EC92E00E94712110
:10580000F401108161E0812F0E9436202DEC3CECE8
:105810004CE050E4C201B1010E94992F20E030E039
:1058200048EC52E40E94442E1B012C0110927B0391
:1058300010927C0310927D0310927E0320917B03D3
:1058400030917C0340917D0350917E03C201B101F0
:105850000E943A30181694F381ED92E00E94712173
:1058600060E0812F0E94362080EE92E00E9471213C
:10587000A9CC9B0177FFD1CC2F5F3F4FCECC77FFD8
:1058800002C06F5F7F4F7595679597FD0196A601E2
:10589000959587950E94CE1A0E94841961E070E068
:1058A00080E090E00E94F02082E0C80ED11CA6CCDF
:1058B000D7FED1CCEFEFCE1ADE0ACDCC6091240515
:1058C0007091250577FF02C06F5F7F4F75956795D3
:1058D000809122059091230597FD0196A60195954B
:1058E00087950E94CE1A0E94841961E070E080E0E2
:1058F00090E00E94F020F2E0CF1AD108AECC809167
:10590000350590913605892B31F08091580590919D
:1059100059050E948617E0914905F0914A0590814A
:1059200080914E05809589238083D5CCE0914905EF
:10593000F0914A05908180914E05892B808380915A
:10594000350590913605892B09F4EFCC0E941B1781
:10595000ECCC8091350590913605892B31F0809102
:105960005805909159050E948617E0914905F091DC
:105970004A05908180914E05809589238083F4CCDF
:10598000E0914905F0914A05908180914E05892B5F
:1059900080838091350590913605892B09F40ECDD1
:1059A0000E941B170BCD8091350590913605892BF0
:1059B00031F080915805909159050E948617E09129
:1059C0004905F0914A05908180914E058095892383
:1059D000808313CDE0914905F0914A059081809133
:1059E0004E05892B80838091350590913605892B52
:1059F00009F438CD0E941B1735CD80913505909163
:105A00003605892B31F080915805909159050E94F7
:105A10008617E0914905F0914A05908180914E05E5
:105A200080958923808335CDE0914905F0914A0521
:105A3000908180914E05892B8083809135059091CE
:105A40003605892B09F45ACD0E941B1757CDCF93E9
:105A5000DF93E0EEF3E01382128288EE93E0A0E0A1
:105A6000B0E084839583A683B7832AE132E0318353
:105A7000208345E351E05587448744E351E057874D
:105A8000468740E351E0518B408B41E351E0538B1B
:105A9000428B42E351E0558B448B46E351E0578BF8
:105AA000468B118E128E138E148EEDE7F4E0138266
:105AB000128284839583A683B7833183208325EC68
:105AC00030E03587248724EC30E03787268720ECC8
:105AD00030E0318B208B21EC30E0338B228B22ECB9
