:100000000C94B4080C94D9110C94AE110C94831177
:100010000C9458110C942D110C9402110C94D710BF
:100020000C94AC100C94E5080C94E5080C94E508CD
:100030000C94E5080C94E5080C94E5080C94E5088C
:100040000C94E5080C94E5080C94E5080C94E5087C
:100050000C94E5080C94E5080C94E5080C944C21EC
:100060000C94E5080C94A3120C9479120C94E508F6
:100070000C94E5080C94E5080C94E5080C94E5084C
:100080000C94E5080C94E5080C94E5080C94E5083C
:100090000C94E5080C94E5080C94E5080C941014F5
:1000A0000C94E5080C94E5080C94E5080C94E5081C
:1000B0000C94E5080C94E5080C94E5080C94E5080C
:1000C0000C94E5080C94E5080C94E5080C94E508FC
:1000D0000C94E5080C94E5080C9443120C94191246
:1000E0000C94E508221C251C141C181C1C1C5C1CF0
:1000F000291C2D1C331C371C3B1C411C451C491C56
:100100005C1C4F1C531C571C0C945A0E0C94930BE4
:100110000C94840C0C9421090C94B20A0C94D2090E
:100120000C94810D0C9443090C94E7080C94371C33
:100130000C94451C0C94181C0C9412090C94291C4A
:100140000C94670C0C94251C0C94780C0C94700D7A
:100150000C94531C0C941C1C0C94E8080C94331C39
:100160000C94160E0C94221C0C945B130C94720DC0
:100170000C94491C0C94CA0D0C94A50E0C949D0D66
:100180000C94B00B0C94260B0C94FA0D0C94FD0DF2
:100190000C94900C0C94141C0C94950D0C94680CFD
:1001A0000C9435090C942D1C0C9415290C94C70A39
:1001B0000C944F1C0C94F90D0C9496210C94F4099A
:1001C0000C9485090C943B1C0C945C1C0C94571CDF
:1001D0000C94411C0C94710D0C94970CDB40A4A65C
:1001E0002EAF2000A1C8D300408DAED580A800005E
:1001F000600000000000000000000000000000E0BF
:100200000000000000000000000000000001E0000D
:1002100000000000000000000000000001F00000ED
:10022000000000000000000000000003F0000000DB
:100230000000000000000000000007F000000000C7
:1002400000000000000000000007F80000000000AF
:1002500000000000000000000FF800000003C000D4
:100260007E000001E0007F0FF800000003C000FEE8
:10027000000001E000FFEFF800000003C000FE00F6
:100280000001E000FFFFF800000003C000F00000E4
:10029000000F007FFE7FC0000003C000F0000000E0
:1002A0000F003FFE7FF83FF1FBCFFCFEF3BC3DEFBC
:1002B000E01FFE7FFF7FFBFFDFFEFEFFBC3DEFE0A8
:1002C0001FC6FFFF7FFBFFDFFEFEFFBC3DEFE00F21
:1002D000E3C7FE787BC3DE1EF0FFBC3DEF0007FFE7
:1002E00087FC787BC3DE1EF0F83C3DEF0001FFFF8A
:1002F000F0007BC3C01EF0F03C3DEF0001F37FE057
:100300003FFBC3CFFEF0F03C3DEF0003E33F807FB7
:10031000FBC3DFFEF0F03C3DEF0007E73C00787BDD
:10032000C3DE1EF0F03C3DEF0007FFBE00787BC34C
:10033000DE1EF0F03C3DEF0007FFFE00787BC3DEE1
:100340001EF0F03C3DEF000FFFFE007FFBFFDFFEE5
:10035000F0F03FFDEFE00FFFFF007FFBFFDFFEF05F
:10036000F03FFDEFE00FF9FF003E79F9CF9EF0F08E
:100370001F3DE7E01FF1FF0000000000000000004B
:100380000000001F80FF007FFFFFFFFFFFFFFFFF58
:10039000FFE01C007F007FFFFFFFFEB46D888D181B
:1003A000E000001F007FFFFFFFFE95AD7DB577E009
:1003B00000000F007FFFFFFFFEA5AD9D8D19E0003F
:1003C0000006007FFFFFFFFEB5ADEDB57EE000004B
:1003D0000000000180000000000000000000038019
:1003E00000000000000000000007C0000000000046
:1003F0000000000007C00000000000000000000F27
:10040000C00000000000000000001FE0000000002D
:1004100000000000001FE0000000000000000000DD
:100420003FE00000000000000000003FF00000007E
:100430000000000000007FF0000000000000001F2E
:10044000F87FF0000000000000003FFE7FF0000099
:1004500000000000003FFF7FF000000000000000EF
:100460001FFFFBE0000000000000000FFFF9FFC0CD
:100470000000000000000FFFF9FFF800000000007E
:100480000007FFF1FFFF00000000000003FC73FF06
:10049000FF80000000000001FE3FFFFF8000000021
:1004A000000000FF1E0FFF000000000000007FFEA4
:1004B0001FFC000000000000003FFFFFF8000000EC
:1004C000000000000FDFFFE0000000000000001F40
:1004D00019FFC0000000000000003F3CFF000000CA
:1004E00000000000007E7CF800000000000000001A
:1004F0007FFE7C0000000000000000FFFFFC000009
:10050000000000000000FFFFFE00000000000000EF
:1005100000FFFFFE0000000000000001FFEFFE00F2
:1005200000000000000001FFCFFE000000000000FE
:100530000003FF07FE0000000000000003FC07FEB0
:100540000000000000000003F003FE0000000000B7
:100550000000018000FE000000000000000000001C
:100560007E000000000000000000003E00000000CF
:100570000000000000000C000000000000078000E8
:10058000FC000003C0000000078001FC000003C065
:10059000000000078001FC000003C000000007808D
:1005A00001E00000001E000000078001E0000000E4
:1005B0001E007FE3F79FF9FDE7787BDFC0FFF7FFC1
:1005C000BFFDFDFF787BDFC0FFF7FFBFFDFDFF78BC
:1005D0007BDFC0F0F787BC3DE1FF787BDE00F0F702
:1005E00087BC3DE1F0787BDE0000F787803DE1E0ED
:1005F000787BDE007FF7879FFDE1E0787BDE00FF00
:10060000F787BFFDE1E0787BDE00F0F787BC3DE1D6
:10061000E0787BDE00F0F787BC3DE1E0787BDE0030
:10062000F0F787BC3DE1E0787BDE00FFF7FFBFFD20
:10063000E1E07FFBDFC0FFF7FFBFFDE1E07FFBDF15
:10064000C07CF3F39F3DE1E03E7BCFC000000000A3
:1006500000000000000000FFFFFFFFFFFFFFFFFFA3
:10066000FFC0FFFFFFFFFD68DB111A31C0FFFFFF76
:10067000FFFD2B5AFB6AEFC0FFFFFFFFFD4B5B3B0B
:100680001A33C0FFFFFFFFFD6B5BDB6AFDC000009C
:10069000000000000000000000000000000000005A
:1006A000000000000000001FFFFFF800000FFFFF28
:1006B000F800001FFFFFF800001FFFFFF800000F09
:1006C00092497800000700007000000700006000F9
:1006D0000007000060000007000070000007000035
:1006E00060000007000060000007000070000007C5
:1006F000000060000007C001E0000001C0038000AE
:100700000000C00180000000380E00000000300E24
:10071000000000000E38000000000630000000005D
:100720000E3800000000063000000000380E000007
:100730000000300C00000000500680000001C001E5
:1007400080000000C00180000007018060000007F9
:1007500001807000000703C06000000707F0600020
:10076000000707F0700000071FFC600000071FFC77
:100770006000000700007000000700006000001F1C
:10078000FFFFF800000FFFFFF800001FFFFFF80059
:10079000001FFFFFF800001FFFFFF800000000002F
:1007A0000000000000000000000000000000000049
:1007B0000000000000000000000000000000000039
:1007C000000000000000001FFFFFF800001FFFFFF7
:1007D000F800000FFFFFF800001FFFFFF800000FF8
:1007E000AAAAF800000300006000000700006000F3
:1007F0000007000060000007000060000003000028
:1008000060000007000060000007000060000007B3
:10081000000060000003C001E0000000C003800091
:100820000000D00580000000380C00000000300EF1
:10083000000000000E30000000000638000000003C
:100840000E3000000000063000000000380E0000EE
:100850000000380C00000000B00680000001C1C399
:1008600080000000C18180000007000060000007D8
:10087000000060000003008060000007018060004D
:10088000000701C06000000707F06000000307F0E8
:100890006000000700006000000700006000001F0B
:1008A000FFFFF800000FFFFFF800001FFFFFF80038
:1008B000000FFFFFF800001FFFFFF800000000001E
:1008C0000000000000000000000000000000000028
:1008D0000000000000000000000000000000000018
:1008E0000000000000000000000000000000000008
:1008F00000000007FFFFF0000007FFFFF000000707
:10090000FFFFF00000030000600000010000400055
:100910000001000040000001000040000001000054
:100920004000000100004000000107F0400000010D
:1009300007F0C000000181C1C0000001C1C38000F8
:100940000000F18700000000380E00000000180CC5
:10095000000000000E78000000000670000000009B
:100960000670000000000E700000000019D80000A2
:10097000000039CC00000000F98E00000001C00327
:1009800080000001C003C0000001063040000001EB
:1009900006704000000106204000000100004000F9
:1009A000000100004000000101C04000000101C042
:1009B00040000001008040000003000060000007CC
:1009C000FFFFF0000007FFFFF0000007FFFFF0004F
:1009D0000000000000000000000000000000000017
:1009E0000000000000000000000000000000000007
:1009F00000000000000000000000000000000000F7
:100A0000000000000000001FFFFFF800001FFFFFB4
:100A1000F800000FFFFFF800001FFFFFF800000FB5
:100A2000AAAAF800000700006000000700006000AC
:100A300000030000600000070000600000071FFCCA
:100A4000600000071FFC6000000707F06000000363
:100A500007F060000007C1C1E0000001C183800011
:100A60000000D08580000000300C00000000380E2F
:100A7000000000000630000000000E3800000000FA
:100A80000630000000000E3000000000300E0000B4
:100A90000000380C00000000500680000001C181F9
:100AA00080000000C1C18000000706306000000720
:100AB00006306000000302106000000700006000C4
:100AC0000007000060000007000060000003000055
:100AD0006000000700006000000700006000001FC9
:100AE000FFFFF800000FFFFFF800001FFFFFF800F6
:100AF000000FFFFFF800001FFFFFF80000000000DC
:100B00000000000000000000000000000000456E32
:100B1000207072657061726174696F6E2E2E2E0086
:100B200000FF2F260000FF2F2700012F2900A30020
:100B3000012F2A00A300436F6D6D616E6465207301
:100B400065727669652021000000210024002700DD
:100B50002A002D00300033000101000004010701CC
:100B60000A0100002200250028002B002E00310081
:100B7000340002010000050108010B01050505050F
:100B8000070508080808020202020A0A0808040405
:100B90000404010101010101010103030303030333
:100BA0000303040707070C0C0C0C0C0C0C0C0202C2
:100BB000020206060606060606060B0B0B0B0B0BBF
:100BC0000B0B01021020200808102040102040804C
:100BD0000201020108040201010204081020408001
:100BE000804020100804020180040201804020108F
:100BF00008040201080402010102040810204080D8
:100C0000010204081020408000000A0B02090C0DAC
:100C10000E080703040100000000000000000000AF
:100C200000000000000000000000000000000000C4
:100C30000000000012111000000000000000000081
:100C400000000000000000000000000000000001A3
:100C500003070F1F3F7F0080C0E0F0F8FCFE00009C
:100C60000000003E5B4F5B3E3E6B4F6B3E1C3E7C8C
:100C70003E1C183C7E3C181C577D571C1C5E7F5E3A
:100C80001C00183C1800FFE7C3E7FF0018241800F9
:100C9000FFE7DBE7FF30483A060E26297929264090
:100CA0007F050507407F05253F5A3CE73C5A7F3EBC
:100CB0001C1C08081C1C3E7F14227F22145F5F004E
:100CC0005F5F06097F017F006689956A60606060EA
:100CD0006094A2FFA29408047E040810207E2010D5
:100CE00008082A1C08081C2A08081E101010100CDE
:100CF0001E0C1E0C30383E3830060E3E0E0600002C
:100D000000000000005F00000007000700147F14CF
:100D10007F14242A7F2A122313086462364956203E
:100D2000500008070300001C2241000041221C0063
:100D30002A1C7F1C2A08083E080800807030000822
:100D400008080808000060600020100804023E51F6
:100D500049453E00427F4000724949494621414988
:100D60004D331814127F1027454545393C4A4949EF
:100D70003141211109073649494936464949291E59
:100D80000000140000004034000000081422411448
:100D900014141414004122140802015909063E419A
:100DA0005D594E7C1211127C7F494949363E4141C2
:100DB00041227F4141413E7F494949417F0909091B
:100DC000013E414151737F0808087F00417F410087
:100DD0002040413F017F081422417F404040407F36
:100DE000021C027F7F0408107F3E4141413E7F0983
:100DF0000909063E4151215E7F09192946264949C4
:100E0000493203017F01033F4040403F1F20402003
:100E10001F3F4038403F6314081463030478040301
:100E20006159494D43007F414141020408102000AF
:100E30004141417F04020102044040404040000320
:100E400007080020545478407F28444438384444EC
:100E50004428384444287F385454541800087E09E4
:100E60000218A4A49C787F0804047800447D400004
:100E70002040403D007F1028440000417F40007C1E
:100E8000047804787C080404783844444438FC1816
:100E900024241818242418FC7C08040408485454FA
:100EA000542404043F44243C4040207C1C20402027
:100EB0001C3C4030403C44281028444C9090907C8E
:100EC0004464544C440008364100000077000000A0
:100ED0004136080002010204023C2623263C1EA1E2
:100EE000A161123A4040207A385454555921555541
:100EF00079412254547842215554784020545579F0
:100F0000400C1E5272123955555559395454545982
:100F100039555454580000457C410002457D42003B
:100F200001457C407D1211127DF0282528F07C546B
:100F30005545002054547C547C0A097F4932494964
:100F400049323A4444443A324A4848303A414121CD
:100F50007A3A42402078009DA0A07D3D4242423D29
:100F60003D4040403D3C24FF2424487E4943662BBD
:100F70002FFC2F2BFF0929F620C0887E090320545F
:100F80005479410000447D413048484A323840405D
:100F9000227A007A0A0A727D0D19317D2629292FBD
:100FA00028262929292630484D40203808080808D5
:100FB00008080808382F10C8ACBA2F102834FA00D7
:100FC000007B000008142A142222142A1408550059
:100FD000550055AA55AA55AAFF55FF55FF00000018
:100FE000FF00101010FF00141414FF001010FF0079
:100FF000FF1010F010F0141414FC001414F700FF8C
:101000000000FF00FF1414F404FC141417101F1048
:10101000101F101F1414141F00101010F0000000F7
:10102000001F101010101F10101010F01000000002
:10103000FF101010101010101010FF10000000FF13
:10104000140000FF00FF00001F10170000FC04F454
:1010500014141710171414F404F40000FF00F7140C
:10106000141414141414F700F71414141714101093
:101070001F101F141414F4141010F010F000001FAF
:10108000101F0000001F14000000FC140000F010EE
:10109000F01010FF10FF141414FF141010101F0094
:1010A000000000F010FFFFFFFFFFF0F0F0F0F0FF96
:1010B000FFFF0000000000FFFF0F0F0F0F0F38446D
:1010C000443844FC4A4A4A347E02020606027E0242
:1010D0007E0263554941633844443C04407E201EEF
:1010E0002006027E020299A5E7A5991C2A492A1C1E
:1010F0004C7201724C304A4D4D303048784830BC0B
:10110000625A463D3E494949007E0101017E2A2A34
:101110002A2A2A44445F444440514A444040444AB5
:1011200051400000FF0103E080FF000008086B6BE6
:10113000083612362436060F090F0600001818006C
:1011400000001010003040FF0101001F01011E00CF
:10115000191D1712003C3C3C3C000000000022001E
:10116000FF2100001529962111241FBECFEFD1E2E7
:10117000DEBFCDBF00E00CBF25E0A0EDB2E001C0B6
:101180001D92A933B207E1F712E0A0E0B2E0ECEC67
:10119000FCE500E00BBF02C007900D92A03DB10737
:1011A000D9F718E0C3EBD8E000E006C021970109A9
:1011B000802FFE010E94122BC23BD10780E008075E
:1011C000A9F70E94A8210C94542E0C9400000895B5
:1011D000CF92DF92EF92FF920F931F93CF93DF9303
:1011E0006C017A018B01C0E0D0E0CE15DF0581F003
:1011F000D8016D918D01D601ED91FC910190F081A6
:10120000E02DC6011995892B11F02196EECF7E01B4
:10121000C701DF91CF911F910F91FF90EF90DF9069
:10122000CF900895FC01538D448D252F30E0842FFD
:1012300090E0821B930B541710F0CF9608950197FE
:101240000895FC01918D828D981761F0828DDF01E8
:10125000A80FB11D5D968C91928D9F5F9F73928FA9
:1012600090E008958FEF9FEF0895FC01918D828D9E
:10127000981731F0828DE80FF11D858D90E008956B
:101280008FEF9FEF0895FC01918D228D892F90E0C3
:10129000805C9F4F821B91098F739927089580EA84
:1012A00093E00E94430921E0892B09F420E0822F7A
:1012B00008958DE394E00E94430921E0892B09F40D
:1012C00020E0822F0895FC01848DDF01A80FB11D5D
:1012D000A35ABF4F2C91848D90E001968F7399276C
:1012E000848FA689B7892C93A089B1898C9183704A
:1012F00080648C93938D848D981306C00288F38943
:10130000E02D80818F7D80830895EF92FF920F936F
:101310001F93CF93DF93EC0181E0888F9B8D8C8DA1
:10132000981305C0E889F989808185FD26C0F62ECD
:101330000B8D10E00F5F1F4F0F731127E02E8C8D68
:10134000E8120CC00FB607FCFACFE889F989808152
:1013500085FFF5CFCE010E946309F1CF8B8DFE0191
:10136000E80FF11DE35AFF4FF0829FB7F8940B8FFF
:10137000EA89FB89808180620AC09FB7F894EE8970
:10138000FF896083E889F989808183708064808324
:101390009FBF81E090E0DF91CF911F910F91FF906F
:1013A000EF900895CF93DF93EC01888D8823C9F0E7
:1013B000EA89FB89808185FD05C0A889B9898C915E
:1013C00086FD0FC00FB607FCF5CF808185FFF2CFF9
:1013D000A889B9898C9185FFEDCFCE010E94630960
:1013E000E7CFDF91CF910895FC0177FDB9C08085EB
:1013F0009185681779070CF0B3C057FDB1C082859D
:101400009385481759070CF008958689823079F43E
:1014100084819581DC01A61BB70BBD016150710968
:1014200086819781DC01A41BB50BAD010EC0833012
:1014300009F084C064277527CA0186279727682783
:10144000792746815781481B590B4150510921305A
:10145000310531F048F12230310509F44AC00895D0
:10146000CA0157FD07969C01A3E035952795AA95DB
:10147000E1F7A481B5812A9FC0012B9F900D3A9F6F
:10148000900D1124680F791F078CF0A1E02DE60F55
:10149000F71F4770552781E090E001C0880F4A95FB
:1014A000EAF79081892B48C0CA0157FD07969C0135
:1014B00093E0359527959A95E1F7A481B5812A9F08
:1014C000C0012B9F900D3A9F900D1124680F791F3A
:1014D000078CF0A1E02DE60FF71F4770552781E03C
:1014E00090E001C0880F4A95EAF7809590818923A2
:1014F00023C0CA0157FD07969C0183E035952795C7
:101500008A95E1F7A481B5812A9FC0012B9F900D98
:101510003A9F900D1124680F791F078CF0A1E02DE0
:10152000E60FF71F4770552781E090E001C0880F54
:101530004A95EAF79081892780830895813009F0E0
:1015400086CF642775274627572764277527848108
:101550009581DC01A61BB70BBD016150710977CFE6
:1015600008950895FC016370668B848195812681BE
:101570003781613039F0633029F091878087338774
:1015800022870895318720879387828708956F92F5
:101590007F928F929F92AF92BF92CF92DF92EF9203
:1015A000FF920F931F93CF93DF93EC014B015A01EE
:1015B00069013801E881F9810284F385E02D1995EC
:1015C000E881F9810288F389E02D87019601A50160
:1015D000B401CE011995A501460D571D4150510981
:1015E000E881F9810288F389E02D9601B401CE01EA
:1015F0001995E881F9810088F189E02D9301A50111
:10160000B401CE011995C80CD91CB60161507109FD
:10161000E881F9810088F189E02D9301A501CE01CF
:101620001995E881F9810688F789E02DCE01DF91CF
:10163000CF911F910F91FF90EF90DF90CF90BF90CF
:10164000AF909F908F907F906F9019948F929F9200
:10165000AF92BF92CF92DF92EF92FF920F931F93C0
:10166000CF93DF934C016B015A01E901DC01ED914D
:10167000FC916217730781F40417150724F48B2D6E
:101680005801042F182F0A191B0998012F5F3F4F8B
:10169000048CF58DE02D12C04017510709F526176F
:1016A000370724F48D2D6901C62FD82F9E012C19E0
:1016B0003D092F5F3F4F068CF78DE02D8701A50177
:1016C000B601C4011995DF91CF911F910F91FF9041
:1016D000EF90DF90CF90BF90AF909F908F90089544
:1016E0000284F385E02D1995D401ED91FC910488D5
:1016F000F589E02D9E01A501B601C4011995D4011B
:10170000ED91FC910688F789E02DC401DF91CF911E
:101710001F910F91FF90EF90DF90CF90BF90AF900F
:101720009F908F901994EF92FF920F931F93DC017B
:101730001A960D911C911B9718962D913C91199713
:10174000ED91FC9100A0F1A1E02D7B0140E050E083
:1017500060E070E019951F910F91FF90EF90089550
:101760004F925F926F927F928F929F92AF92BF92B1
:10177000CF92DF92EF92FF920F931F93CF93DF935D
:101780006C012B015A0139014801DC01ED91FC91FA
:101790000284F385E02D1995E201640C751CD601D5
:1017A000ED91FC91C615D7055CF40088F189E02D18
:1017B00087019401A501BE01C60119952196EFCFBD
:1017C0000688F789E02DC601DF91CF911F910F9117
:1017D000FF90EF90DF90CF90BF90AF909F908F9051
:1017E0007F906F905F904F9019948F929F92AF92DD
:1017F000BF92CF92DF92EF92FF920F931F93CF93FE
:10180000DF93EC015B014A016901E881F9810284FF
:10181000F385E02D199595012C0D3D1D21503109C1
:10182000E881F9810488F589E02D78018401A4011B
:10183000B501CE011995E881F9810688F789E02D77
:10184000CE01DF91CF911F910F91FF90EF90DF902C
:10185000CF90BF90AF909F908F9019948F929F924E
:10186000AF92BF92CF92DF92EF92FF920F931F93AE
:10187000CF93DF93EC015B014A0169017801E881B4
:10188000F9810284F385E02D1995C80CD91C8601D5
:1018900001501109E881F9810488F589E02D95014D
:1018A000A401B501CE011995E881F9810688F7896F
:1018B000E02DCE01DF91CF911F910F91FF90EF901E
:1018C000DF90CF90BF90AF909F908F901994089524
:1018D000EF92FF920F931F93DC01ED91FC9100A01A
:1018E000F1A1E02D19951F910F91FF90EF900895B0
:1018F0000F931F93DC01ED91FC91068CF78DE02D89
:1019000019951F910F9108950F931F93DC01ED918D
:10191000FC91048CF58DE02D19951F910F91089580
:10192000DC01ED91FC910084F185E02D19942F925A
:101930003F924F925F926F927F928F929F92AF925F
:10194000BF92CF92DF92EF92FF920F931F93CF93AC
:10195000DF9300D000D0CDB7DEB72C017E836D833E
:101960006A015901C801FC82EB824801841A950A78
:1019700097FE03C091948194910835012D813E8199
:10198000621A730A77FE03C0719461947108681437
:1019900079045CF43A2D2B2D5C01832F922F3D812D
:1019A0002E81DE82CD82C32ED22EAD81BE81AA16BB
:1019B000BB065CF43C2D2D2D6C01832F922F3D81B5
:1019C0002E81BE82AD82A32EB22E85012D813E8155
:1019D000021B130B1C012C183D0837FE03C0319469
:1019E00021943108780117FF03C03FEFE31AF30A8F
:1019F000F594E794C816D9062CF08FEF9FEF9A83E1
:101A0000898304C0A1E0B0E0BA83A9832D813E811F
:101A1000A216B30624F1D201ED91FC910484F58560
:101A2000E02D2B813C816814790424F44D815E8182
:101A3000B60103C0A6016D817E81C2011995E2182D
:101A4000F308F7FE06C029813A81C20ED31EE00ECC
:101A5000F11E8D819E8101969E838D83D7CF269620
:101A60000FB6F894DEBF0FBECDBFDF91CF911F91AF
:101A70000F91FF90EF90DF90CF90BF90AF909F902D
:101A80008F907F906F905F904F903F902F90089530
:101A900040911103262F30E0240F311D21323105F2
:101AA000DCF4209176032430C9F4FC0180E090E05E
:101AB000861758F4309111032191DC01AF50BD4FCE
:101AC000A30FB11D2C930196F3CF80911103680FE2
:101AD0006093110380E0089581E0089582E0089505
:101AE00008950895E0913A0380913903E81730F49E
:101AF000F0E0E053FD4F808190E008958FEF9FEF7D
:101B0000089590913A0380913903981750F4E92F82
:101B1000F0E0E053FD4F208130E09F5F90933A0367
:101B200002C02FEF3FEFC90108958091390390E083
:101B300020913A03821B91090895CF92DF92EF9290
:101B4000FF920F931F93CF93DF937C01CB018A0108
:101B500020917C03222389F0EB016B01C40ED51E7A
:101B6000CC15DD0569F06991D701ED91FC910190EB
:101B7000F081E02DC7011995F3CF642F0E94480D25
:101B8000C801DF91CF911F910F91FF90EF90DF90EF
:101B9000CF900895CF93DF931F92CDB7DEB76983BF
:101BA00020917C032223D1F020919F03203240F02A
:101BB00021E030E0FC013383228380E090E015C017
:101BC00080917D03E82FF0E0E258FC4F99819083EB
:101BD0008F5F80937D0380939F0305C061E0CE01FA
:101BE00001960E94480D81E090E00F90DF91CF9127
:101BF0000895089580E090E0089560913B0370910E
:101C00003C0380913D0390913E0320E536E24EE295
:101C10005EE30E941B2B60933B0370933C03809315
:101C20003D0390933E0308950E94382E0F931F9317
:101C3000CF93DF93DC015696EC915697E23071F02A
:101C4000E330E9F0E13079F5FB0114960D90BC9199
:101C5000A02DA41BB50BA21BB30B18C0EC01EC818B
:101C6000FD81E61BF70BBF0161507109EE81FF8119
:101C7000DF01A41BB50BAD01421B530B14C0DA01ED
:101C8000EC01EE81FF81E61BF70B3197F7FD0DC0EC
:101C9000EC014E815F81E417F5073CF4AF01BD0113
:101CA0000E94D71A02C00E943E1BDF91CF911F9164
:101CB0000F9108950F931F93DC015696EC91569760
:101CC000E23061F0E33009F1E13081F51496ED91F5
:101CD000FC911597E41BF50B319723C0DC0114969A
:101CE000ED91FC911597DF01A61BB70BBD01DC013F
:101CF0001696ED91FC911797DF01A41BB50BAD0172
:101D000041505109621B730B11C0FA01DC01169698
:101D10004D915C911797DA01A61BB70BBD01621BB1
:101D2000730BAB01BF010E943E1B0CC057FD0AC0E4
:101D3000DC011696ED91FC9117974E175F0714F48E
:101D40000E94D71A1F910F9108958F929F92AF9280
:101D5000CF92EF92FF920F931F93CF93DF93EC01FB
:101D6000262F898D9A8D009709F042C06A3059F468
:101D70001D861C862D898E859F8538E0239F800DCA
:101D8000911D112443C06D3009F4AAC08F898823A6
:101D9000C9F03C898C859D8546E0349F800D911D5E
:101DA0001124488559854817590764F41D861C86F7
:101DB0003D898E859F8548E0349F800D911D1124BB
:101DC0009F878E87EA88FB88088919894E855F85F9
:101DD0006C857D85AD88CC88CE010E94A3182C89A6
:101DE0008C859D8536E0239F800D911D11243EC07A
:101DF0006A3079F41D861C862D89FC013896E491A1
:101E00008E859F852E9F800D911D11249F878E8723
:101E100067C06D3009F464C0FC01349634916317D7
:101E200008F45EC03296E491E61708F459C0462FD4
:101E3000431B342FFC0132968590949047E0349FE9
:101E4000800C911C1124F401329634913196E49166
:101E5000332311F0E1110DC0F4013496E4912C8983
:101E60008C859D85E29F800D911D11249D878C8717
:101E700037C0F401359644915F89552319F15C8987
:101E8000E32FF0E0E40FF11D47FDFA955E9FB001EE
:101E90005F9F700D11244C855D85460F571F688527
:101EA00079856417750774F41D861C863D89FC01CD
:101EB0003896E4918E859F853E9F800D911D11245B
:101EC0009F878E87EA88FB88088919894E855F85F8
:101ED0006C857D85AD88CC88CE010E94A318BCCFCF
:101EE00081E090E0DF91CF911F910F91FF90EF90F3
:101EF000CF90AF909F908F900895FC012481358101
:101F00006217730720F480819181009729F4109261
:101F1000340384E393E00895860F971F08950F9389
:101F20001F93CF93DF93EC0188819981009729F06B
:101F30002A813B812617370788F48B016F5F7F4F1B
:101F40000E94532D009761F0998388831B830A8335
:101F50002C813D81232B11F4FC01108281E001C012
:101F600080E0DF91CF911F910F910895EF92FF9242
:101F70000F931F93CF93DF93EC017B018A01BA018A
:101F80000E948F0F2881398181110DC021153105E3
:101F900019F0C9010E94CA2C198218821D821C8264
:101FA0001B821A8206C01D830C83B701C9010E94DF
:101FB0004D2ECE01DF91CF911F910F91FF90EF90A9
:101FC0000895FC0180819181009711F00C94CA2C36
:101FD00008950F931F93CF93DF9300D000D0CDB718
:101FE000DEB780EA93E00E944309181619060CF048
:101FF00077C080EA93E00E944309181619063CF561
:1020000080EA93E00E94210989831A8200911E05CB
:1020100010911F050F5F1F4FB8018AE195E00E94E4
:102020008F0F882331F320911A0530911B05809181
:102030001E0590911F05BE016F5F7F4F820F931F9A
:102040000E944D2E10931F0500931E05D2CF8AE1EA
:1020500095E00E948C1860E070E08AE195E00E94B3
:102060007D0FFC0180818134F1F060E070E08AE155
:1020700095E00E947D0FFC0180818234A1F060E038
:1020800070E08AE195E00E947D0FFC01808183343D
:1020900051F060E070E08AE195E00E947D0FFC0164
:1020A00080818434E9F41A8219821C821B821E8288
:1020B0001D8260911A0570911B056115710541F033
:1020C00040911E0550911F05CE0101960E94B60F4A
:1020D000CE0101960E946C1FCE0101960E94E10F75
:1020E00026960FB6F894DEBF0FBECDBFDF91CF911D
:1020F0001F910F9108950E945909811121C080E01C
:1021000090E0892B41F080E090E0892B21F00E9443
:102110000000811118C080E090E0892B41F080E040
:1021200090E0892B21F00E94000081110FC080E017
:1021300090E0892B81F00E944F0981110AC0089517
:102140000E94E90FDCCF0E940000E5CF0E94000052
:10215000EECF0C94000008951F920F920FB60F92CD
:1021600011240BB60F922F933F934F935F936F936E
:102170007F938F939F93AF93BF93EF93FF93E091E0
:102180000E02F0910F021995FF91EF91BF91AF915F
:102190009F918F917F916F915F914F913F912F917F
:1021A0000F900BBE0F900FBE0F901F9018951F92AF
:1021B0000F920FB60F9211240BB60F922F933F93ED
:1021C0004F935F936F937F938F939F93AF93BF933F
:1021D000EF93FF93E0910C02F0910D021995FF919E
:1021E000EF91BF91AF919F918F917F916F915F918F
:1021F0004F913F912F910F900BBE0F900FBE0F90FC
:102200001F9018951F920F920FB60F9211240BB6C4
:102210000F922F933F934F935F936F937F938F937F
:102220009F93AF93BF93EF93FF93E0910202F091DE
:1022300003021995FF91EF91BF91AF919F918F91FB
:102240007F916F915F914F913F912F910F900BBEB6
:102250000F900FBE0F901F9018951F920F920FB600
:102260000F9211240BB60F922F933F934F935F93CE
:102270006F937F938F939F93AF93BF93EF93FF934E
:10228000E0910002F09101021995FF91EF91BF9149
:10229000AF919F918F917F916F915F914F913F91FE
:1022A0002F910F900BBE0F900FBE0F901F9018959F
:1022B0001F920F920FB60F9211240BB60F922F930D
:1022C0003F934F935F936F937F938F939F93AF93BE
:1022D000BF93EF93FF93E0910A02F0910B021995DF
:1022E000FF91EF91BF91AF919F918F917F916F91EE
:1022F0005F914F913F912F910F900BBE0F900FBEAA
:102300000F901F9018951F920F920FB60F921124E5
:102310000BB60F922F933F934F935F936F937F93DF
:102320008F939F93AF93BF93EF93FF93E091080236
:10233000F09109021995FF91EF91BF91AF919F9193
:102340008F917F916F915F914F913F912F910F905E
:102350000BBE0F900FBE0F901F9018951F920F92FB
:102360000FB60F9211240BB60F922F933F934F93FA
:102370005F936F937F938F939F93AF93BF93EF93ED
:10238000FF93E0910602F09107021995FF91EF91FA
:10239000BF91AF919F918F917F916F915F914F917D
:1023A0003F912F910F900BBE0F900FBE0F901F907B
:1023B00018951F920F920FB60F9211240BB60F9221
:1023C0002F933F934F935F936F937F938F939F933D
:1023D000AF93BF93EF93FF93E0910402F091050256
:1023E0001995FF91EF91BF91AF919F918F917F913F
:1023F0006F915F914F913F912F910F900BBE0F9076
:102400000FBE0F901F9018956115710579F0FB01B3
:1024100001900020E9F73197AF01461B570BDC0113
:10242000ED91FC910280F381E02D199480E090E021
:1024300008951F920F920FB60F9211240BB60F92B0
:102440002F933F934F935F936F937F938F939F93BC
:10245000AF93BF93EF93FF9380EA93E00E946309E9
:10246000FF91EF91BF91AF919F918F917F916F916C
:102470005F914F913F912F910F900BBE0F900FBE28
:102480000F901F9018951F920F920FB60F92112464
:102490000BB60F922F938F939F93EF93FF93E0913F
:1024A000B003F091B1038081E091B603F091B703DE
:1024B00082FD12C090818091B9038F5F8F7320914C
:1024C000BA03821751F0E091B903F0E0E056FC4FF7
:1024D000958F8093B90301C08081FF91EF919F9107
:1024E0008F912F910F900BBE0F900FBE0F901F90EA
:1024F00018951F920F920FB60F9211240BB60F92E0
:102500002F933F934F935F936F937F938F939F93FB
:10251000AF93BF93EF93FF938DE394E00E94630921
:10252000FF91EF91BF91AF919F918F917F916F91AB
:102530005F914F913F912F910F900BBE0F900FBE67
:102540000F901F9018951F920F920FB60F921124A3
:102550000BB60F922F938F939F93EF93FF93E0917E
:102560004D04F0914E048081E0915304F0915404A5
:1025700082FD12C09081809156048F5F8F732091ED
:102580005704821751F0E0915604F0E0E35CFB4FF2
:10259000958F8093560401C08081FF91EF919F91A8
:1025A0008F912F910F900BBE0F900FBE0F901F9029
:1025B000189508958EBD00000DB407FEFDCF8EB5B1
:1025C00008951F93CF93DF93FC01858D968D00971F
:1025D00029F1162FEF0121A131E030937C032093E4
:1025E0009E0310927D0310929F03DC01ED91FC91FC
:1025F0000190F081E02D60E019958D8D9E8DDC01BC
:10260000ED91FC910190F081E02D612F19958D8D58
:102610009E8DDF91CF911F910C94CA1DA5A5B6A5E3
:102620009C9183A9809589238C93838D948D892B8C
:1026300031F0862FDF91CF911F910C94DA1228E0B0
:1026400030E080E8A1A5B2A591A9462F482319F052
:102650004C91942B03C04C91909594239C93A3A5EB
:10266000B4A54C9192A9942B9C93A3A5B4A54C918D
:1026700092A9909594239C9386952150310911F746
:10268000DF91CF911F9108958CBD9DBD08959B0151
:10269000AC0160E074E284EF90E00E94F02ADA017D
:1026A000C9014097A109B109B695A7959795879556
:1026B0008093B80008951F93CF93DF93EC01162FFA
:1026C0008D8D9E8D892B39F06DA97EA98FA998AD2E
:1026D0000E9447130FC08B8D9C8D892B21F08EADEE
:1026E0009FAD0E944413EFA5F8A990818CA9809515
:1026F00089238083111102C066EA01C067EACE0116
:102700000E94E1128D8D9E8D892B49F069AD7AADC5
:102710008BAD9CADDF91CF911F910C944713EFA52A
:10272000F8A990818CA9892B8083DF91CF911F918B
:1027300008951092760381E0809375031092500300
:1027400061E084E10E94F31B61E085E10E94F31BDC
:10275000E9EBF0E080818E7F808380818D7F8083B4
:1027600088E48093B80085E48093BC000895CF93FB
:10277000DF9391E09093F0028823B9F0C091B80004
:10278000D091BA008091BC008A7B8093BC0060E04D
:1027900084E10E94F31B60E085E10E94F31B0E942C
:1027A0009913D093BA00C093B800DF91CF910895E8
:1027B00085ED8093BC008091780390917903A0917E
:1027C0007A03B0917B030796A11DB11D23E0B69556
:1027D000A795979587952A95D1F72091BC0024FF5E
:1027E0001CC0409178035091790360917A037091F5
:1027F0007B03452B462B472B81F30097A105B105A1
:1028000041F025E32A95F1F700000197A109B109EC
:10281000E4CF809177030C94B71310927603089558
:102820001F920F920FB60F9211240BB60F922F9397
:102830003F934F935F936F937F938F939F93AF9348
:10284000BF93EF93FF938091B900887F803609F49E
:102850009CC068F5883209F45BC090F4803109F4BB
:1028600054C038F4882309F4F6C0883009F44DC008
:10287000F6C0883109F44CC0803209F45DC0EFC065
:10288000803409F468C048F4803309F455C08833B3
:1028900009F0E5C080937403D8C0803509F44FC0B7
:1028A000883509F45DC0883409F0D9C0D6C08839AC
:1028B00009F4C7C0A8F4883709F467C038F488362B
:1028C00009F463C0803709F460C0C9C0883809F4CE
:1028D000B8C0803909F45FC0803809F0C0C05BC05F
:1028E000803B09F486C038F4803A09F466C0883A1F
:1028F00009F47FC0B4C0803C09F4A7C0883C09F447
:10290000A4C0883B09F48AC0AAC08091510310C0BA
:102910009091730380917203981770F5E09173039F
:1029200081E08E0F80937303F0E0EE5AFC4F8081BC
:102930008093BB0085EC86C0809374038EC0E091C9
:10294000730381E08E0F809373038091BB00F0E0EE
:10295000EE5AFC4F808390917303809172036EC096
:10296000E091730381E08E0F809373038091BB002D
:10297000F0E0EE5AFC4F80838091750381116DC0A9
:1029800081E08093500384EA61C083E08093760302
:1029900010923303CFCF80913303803208F051C0BF
:1029A000E091330381E08E0F809333038091BB006D
:1029B000F0E0ED5EFC4F8083BDCF85EC8093BC00E2
:1029C0001092760380913303803230F4E091330328
:1029D000F0E0ED5EFC4F10826091330370E0E09117
:1029E0003503F091360383E193E019951092330398
:1029F00036C084E080937603109212031092110384
:102A0000E0913703F09138031995809111038111FA
:102A100005C081E0809311031092F102E09112034E
:102A200081E08E0F80931203F0E0EF50FD4F808124
:102A30008093BB009091120380911103981708F4C2
:102A400079CF85E88093BC000AC085EC8093BC00F8
:102A50001092760304C0109274030E94D813FF9161
:102A6000EF91BF91AF919F918F917F916F915F9106
:102A70004F913F912F910F900BBE0F900FBE0F9073
:102A80001F901895DF92EF92FF920F931F93CF93B1
:102A9000DF938091F7049091F804892B59F06091AD
:102AA0000F057091100580911105909112050E94FB
:102AB000471316C08091F5049091F604892B31F0EC
:102AC00080911805909119050E944413E091090521
:102AD000F0910A05908180910E058095892380836D
:102AE00065E08EE591E10E94B61E6091DE046150C2
:102AF0008AED94E00E94E1122091E0043091E1041B
:102B0000C901079697FD079623E0959587952A9525
:102B1000E1F72091DE043091DF04829F8001839FE2
:102B2000100D929F100D1124C091F904D091FA0458
:102B30008091F7049091F8040C0F1D1F009709F481
:102B400051C02091FB0431E030937C0320939E031D
:102B500010927D0310929F03DC01ED91FC91019096
:102B6000F081E02D60E41995EE24E394F12CDD244E
:102B7000D3948091F7049091F8040C171D0779F114
:102B8000B0E2EB16F104D8F00E94CA1D8091FB045C
:102B9000D0927C0380939E0310927D0310929F033A
:102BA0008091F7049091F804DC01ED91FC91019083
:102BB000F081E02D60E41995EE24E394F12C8091EE
:102BC000F7049091F8046991DC01ED91FC9101907A
:102BD000F081E02D1995BFEFEB1AFB0ACACF0E94D6
:102BE000CA1D41C0E0910705F091080590818091D0
:102BF0000D05892B80830C171D07A9F18991209160
:102C0000F5043091F604232B19F00E94DA12F3CF69
:102C100028E030E040E8E0910305F0910405909150
:102C20000B05582F542319F05081952B03C0508168
:102C3000909595239083E0910505F09106055081CC
:102C400090910C05952B9083E0910505F091060578
:102C5000508190910C059095952390834695215035
:102C60003109C9F6C8CF8091F7049091F804892BF7
:102C700089F060911305709114058091150590916C
:102C80001605DF91CF911F910F91FF90EF90DF908C
:102C90000C944713E0910905F0910A059081809109
:102CA0000E05892B80838091F5049091F604892B81
:102CB00049F0DF91CF911F910F91FF90EF90DF903E
:102CC0000C94D912DF91CF911F910F91FF90EF904B
:102CD000DF9008950F931F93CF93DF938C01C0E093
:102CE000D0E0F801EC0FFD1F6491662341F08AEDFE
:102CF00094E00E94A50E892B11F02196F2CF62E795
:102D000072E08AED94E00E9404128C0F9D1FDF9107
:102D1000CF911F910F9108952F923F924F925F9202
:102D20006F927F928F929F92AF92BF92CF92DF92DB
:102D3000EF92FF920F931F93CF93DF9300D01F92D8
:102D4000CDB7DEB77C018B015C834B8381E090E0E3
:102D50005C01A41AB50A1A01319421943108220C9D
:102D6000331C460F571F21E030E0B7018AED94E095
:102D70000E94900CA8012B813C81421B530B21E047
:102D800030E0B7018AED94E00E94900C6B817C8169
:102D90006E0D7F1D21E030E0A8018AED94E00E94D5
:102DA000900CB7018B819C81681B790B21E030E08E
:102DB000A8018AED94E00E94900CC12CD12C21E056
:102DC00030E03A8329838B819C81C816D9060CF0A8
:102DD00073C0B7FC08C001979C838B8392E0290ED7
:102DE000311CA20CB31C2FEFC21AD20A89819A811E
:102DF00002969A838983A80EB91E37016C0C7D1C3C
:102E000021E030E08B809C80800E911EA401B301F4
:102E10008AED94E00E94900C27014C185D0821E097
:102E200030E0A401B2018AED94E00E94900C21E010
:102E300030E048018B819C81881A990AA401B30172
:102E40008AED94E00E94900C21E030E0A401B201F0
:102E50008AED94E00E94900C4601800E911E21E0C4
:102E600030E0A4016B807C806E0C7F1CB3018AED86
:102E700094E00E94900C21E030E0A40127018B81B6
:102E80009C81481A590AB2018AED94E00E94900C84
:102E900048018C189D0821E030E0A401B3018AEDBF
:102EA00094E00E94900C21E030E0A401B2018AED90
:102EB00094E00E94900C87CF0F900F900F900F908E
:102EC000DF91CF911F910F91FF90EF90DF90CF9006
:102ED000BF90AF909F908F907F906F905F904F903A
:102EE0003F902F9008952F923F924F925F926F9252
:102EF0007F928F929F92AF92BF92CF92DF92EF928A
:102F0000FF920F931F93CF93DF93CDB7DEB7A497B4
:102F10000FB6F894DEBF0FBECDBF4B015C019B0125
:102F2000AC010E942D2C882319F064EC72E01AC0C9
:102F300075016401E894F7F82FEF3FEF4FE75FE783
:102F4000C701B6010E942D2C811112C02FEF3FEF57
:102F50004FE75FE7C701B6010E94CC29181644F479
:102F600068EC72E08DE394E00E9404128C01B3C01F
:102F70002FEF3FEF4FE75FE4C501B4010E94282C1B
:102F800018161CF46CEC72E0EDCF2FEF3FEF4FE71B
:102F90005FECC501B4010E94CC2987FDF3CF20E08E
:102FA00030E0A901C501B4010E94CC2987FF0BC004
:102FB0006DE28DE394E00E9485096C01B7FAB0944C
:102FC000B7F8B09402C0C12CD12C2AE037ED43EA07
:102FD0005BE3C501B4010E941B2B4B015C010E9405
:102FE000F92B2B013C010E94D1299B01AC01C501A9
:102FF000B4010E941A2B4B015C0119A27E0181E2EF
:10300000E80EF11CEAA2FBA2C301B2012AE030E003
:1030100040E050E00E94F02A29013A01605DF7018A
:1030200062937F01232B242B252B71F7BF018DE3A6
:1030300094E00E9404128C016EE28DE394E00E9401
:103040008509800F911F8C010C0D1D1D83E0F82E4A
:103050009AE0292E312C412C512CFA94FF20D9F1E1
:1030600020E030E040E251E4C501B4010E94322A80
:103070004B015C010E94F92B9B0140E050E019A23A
:103080006AA07BA06CA3C32ED42EE52ECA01B90181
:10309000A20191010E94F02A605DF30162933F0159
:1030A000211531054105510589F7BF018DE394E0F4
:1030B0000E940412080F191F6CA17C2D8D2D9E2DCE
:1030C0000E94D1299B01AC01C501B4010E941A2BB9
:1030D0004B015C01C2CF62E772E08DE394E00E9495
:1030E0000412800F911FA4960FB6F894DEBF0FBE96
:1030F000CDBFDF91CF911F910F91FF90EF90DF90A7
:10310000CF90BF90AF909F908F907F906F905F9087
:103110004F903F902F900895CF93DF93FC0144810F
:103120005581608171818DE394E00E94E808EC0193
:1031300062E772E08DE394E00E9404128C0F9D1F01
:10314000DF91CF9108952F923F924F925F926F92AD
:103150007F928F929F92AF92BF92CF92DF92EF9227
:10316000FF920F931F93CF93DF93CDB7DEB76B978B
:103170000FB6F894DEBF0FBECDBF9B8F8A8F1B01A9
:103180004A01D22E198708873701A982DC01599696
:103190002D913C915A972115310509F0FFC01896E1
:1031A0008D919C911997681779070CF0E7C11A96D1
:1031B0008D919C911B97481759070CF0DFC1EC2D9E
:1031C000F0E0FB83EA839B0146E0C49E200D311DA5
:1031D00011243D872C87121613060CF0CFC16A2DDF
:1031E00070E07B876A8783E0660F771F8A95E1F737
:1031F0007F876E87CB01880D991D181619060CF074
:10320000BDC158968C91811104C08FEA8D1508F4C8
:10321000D394AA8DBB8DED91FC9111970284F38517
:10322000E02DCD011995B5E0DB9EC0011124EC2DF8
:10323000F0E0F98BE88B91012B5F3F4F3B8B2A8BA2
:103240003D822C822101AC01421953095D8B4C8BCC
:103250007981672F70E07F8B6E8BC4010896998F00
:10326000888FEC89FD89E40DF51DE25AF34FD49067
:1032700054019F828E82D0FE16C0AA8DBB8DED9127
:10328000FC91B1E0CB1209C02981213031F40484D2
:10329000F585E02D2885398519C00684F785E02D50
:1032A000E884F9841DC0488559854615570519F1EC
:1032B000AA8DBB8DED91FC91B1E0CB120DC029819F
:1032C000213051F40484F585E02D9301A501B2016C
:1032D0008A8D9B8D19950FC00684F785E02D7301AB
:1032E0000A851B852A813B814E815F816C817D81AE
:1032F0008A8D9B8D1995D6943FEFA31AB30A4E8100
:103300005F816E897F89460F571F5F834E83888D4B
:10331000998DA816B90609F0AECF9FEF491A590A40
:10332000AC81BD81E889F989AE0FBF1FBD83AC8335
:103330002A893B894216530609F093CF488559855F
:103340004615570509F4F8C0AA8DBB8DED91FC9187
:10335000B1E0CB1211C02981213071F4B1016B5F52
:103360007F4F0088F189E02D830128E030E0A4013F
:103370008A8D9B8D1995E0C06C857D854A815B8126
:10338000641B750B0684F785E02D73010E851F8580
:103390009A01A4018A8D9B8D1995CEC0F9013496AE
:1033A000E491DE1AF901329685919491B7E0DB9EA3
:1033B000800D911D1124F901259134913B8B2A8BAD
:1033C000FC01259134915901FC01329654903196BB
:1033D00034913C87329674903196149141E04C15AB
:1033E00018F05981523068F0672D072C000C770BCC
:1033F0007D836C83812F012E000C990B9B838A8324
:1034000004C01B821A821D821C82AA8DBB8DED9185
:10341000FC9111970284F385E02DCD011995412C83
:10342000D12C612CF981EF2FF0E0FF83EE832C2D5E
:1034300030E03B872A87A401410F511D17FD5A95A3
:103440005F8B4E8BB101670D711D77FC7A95798F7B
:10345000688F7C85671608F06FC0262D30E04A81A2
:103460005B81420F531FAE81BF81A49FC001A59F06
:10347000900DB49F900D1124F401E80FF91FF98B02
:10348000E88B842D712C4E895F89420F531F5D8B11
:103490004C8B751408F04DC051E0580F5E87877053
:1034A00041F4C5010196EA89FB89EA0DFB1DD49020
:1034B0005C01D7FE3AC061E0C61216C07981713056
:1034C00099F4AA8DBB8DED91FC9111970484F5853B
:1034D000E02D288539854C895D89688D798D670D4A
:1034E000711DCD01199521C08C819D81870D911D84
:1034F000EA85FB858E9FB0018F9F700D9E9F700D9A
:103500001124620D731DAA8DBB8DED91FC91119755
:103510000684F785E02DE884F9840E811F812A85D1
:103520003B8548895989CD011995DD0C73948E85A9
:10353000B0CF450C63948DCFAA8DBB8DED91FC91DE
:1035400011970688F789E02DCD016B960FB6F89498
:10355000DEBF0FBECDBFDF91CF911F910F91FF90C6
:10356000EF90DF90CF90BF90AF909F908F907F9023
:103570006F905F904F903F902F9019946B960FB67D
:10358000F894DEBF0FBECDBFDF91CF911F910F9199
:10359000FF90EF90DF90CF90BF90AF909F908F9073
:1035A0007F906F905F904F903F902F9008950F9372
:1035B0001F93CF93DF9377FF04C0260F371F60E080
:1035C00070E0DC011496CD91DC911597FB01E20FC0
:1035D000F31FCE17DF071CF49E01261B370B1216B4
:1035E00013060CF046C0FA0157FD3796DF01E3E001
:1035F000B595A795EA95E1F7AC9FF001AD9FF00D69
:10360000BC9FF00D11246E0F7F1FDC015F96ED91C2
:10361000FC919097E60FF71F4770552781E090E0E7
:1036200001C0880F4A95EAF7482F0130110539F09B
:1036300078F002301105E9F42E0F3F1F13C02E0F52
:103640003F1FE217F307A9F08081842B8193F9CF04
:1036500080952E0F3F1FE217F30759F090819823B2
:103660009193F9CFE217F30721F0808184278193AA
:10367000F9CFDF91CF911F910F910895EF92FF92B3
:103680000F931F93CF93DF93EC0177FDA5C0EC80E0
:10369000FD806E157F050CF09FC057FF04C0240FFE
:1036A000351F40E050E08E819F81FA01E20FF31F49
:1036B0008E179F071CF49C01241B350B1216130652
:1036C0000CF08AC0922F842F8695869586958E9DC4
:1036D000D0018F9DB00D11246A0F7B1FAF8DB8A153
:1036E000A60FB71F4770B1F188E0841B482F682FE1
:1036F00070E0FB01EA5AF34FE491281798F4621B3B
:1037000071092FEF30E002C0359527956A95E2F7F1
:10371000E2230130110549F078F00230110509F07B
:103720005BC00EC00130110519F48C91E82B0AC062
:103730000130110508F049C0E0958C91E82302C0E2
:103740008C91E827EC93941708F446C02C813D81B6
:10375000A20FB31FE92FE41BE830F8F00230110587
:1037600061F48E2F9C9190959C932C813D81A20FAA
:10377000B31F88508830B0F70FC081E001151105E4
:1037800009F480E081959E2F8C932C813D81A20FBE
:10379000B31F98509830C0F7E770EE23E9F0F0E0DF
:1037A000E25BF34FE4910130110539F048F002304B
:1037B000110591F48C91E82706C08C91E82B03C089
:1037C000E0958C91E823EC9307C00230110509F4D1
:1037D000B7CFAE0DBF1DBECFDF91CF911F910F911F
:1037E000FF90EF900895362F90E0FC01E85FF34FD3
:1037F0004491FC01EE53F44F2491FC01E458F44F42
:103800009491992309F46CC0442309F455C050E005
:10381000FA013197E231F10508F04EC08827EE58E1
:10382000FF4F8F4F0C94122B809180008F7707C031
:10383000809180008F7D03C080918000877F80937E
:1038400080003AC084B58F7702C084B58F7D84BD77
:1038500033C08091B0008F7703C08091B0008F7D1E
:103860008093B00029C0809190008F7707C080912D
:1038700090008F7D03C080919000877F809390009F
:103880001BC08091A0008F7707C08091A0008F7D22
:1038900003C08091A000877F8093A0000DC080911D
:1038A00020018F7707C0809120018F7D03C0809118
:1038B0002001877F80932001E92FF0E0EE0FFF1FAA
:1038C000EE59F44FA591B4919FB7F894311104C00B
:1038D0008C912095282302C0EC912E2B2C939FBF16
:1038E0000895CF93DF9390E0FC01EE53F44F2491C1
:1038F000FC01E458F44F8491882361F190E0880F33
:10390000991FFC01E85BF44FC591D491FC01EE597D
:10391000F44FA591B491611109C09FB7F8948881C3
:10392000209582238883EC912E230BC0623061F4B2
:103930009FB7F8948881322F309583238883EC9148
:103940002E2B2C939FBF06C08FB7F894E8812E2BA7
:1039500028838FBFDF91CF9108958F929F92AF926E
:10396000BF92CF92DF92EF92FF926B017C010E9497
:1039700027214B015C01C114D104E104F104F1F0F1
:103980000E942721DC01CB0188199909AA09BB09EA
:10399000883E9340A105B10570F321E0C21AD10819
:1039A000E108F10888EE880E83E0981EA11CB11C86
:1039B000C114D104E104F10419F7DDCFFF90EF90B9
:1039C000DF90CF90BF90AF909F908F900895FC01B3
:1039D000A089B18982E08C93A485B5851C92A685C7
:1039E000B78580E18C93108EA489B58986E08C938D
:1039F000A289B3898C9180618C93A289B3898C91BF
:103A000088608C93A289B3898C9180688C9302889A
:103A1000F389E02D80818F7D808308952091E004DB
:103A20003091E104C901079697FD079623E095952B
:103A300087952A95E1F72091DE043091DF04829F7B
:103A4000A001839F500D929F500D112460E070E003
:103A50008091F9049091FA040C94462ECF93DF9351
:103A6000BC018DE394E00E940412EC0162E772E075
:103A70008DE394E00E9404128C0F9D1FDF91CF9183
:103A800008953F924F925F926F927F928F929F9292
:103A9000AF92BF92CF92DF92EF92FF920F931F935C
:103AA000CF93DF93CDB7DEB728970FB6F894DEBF7C
:103AB0000FBECDBF4C017E836D832A013901C80141
:103AC000079697FD07969C0193E0359527959A9563
:103AD000E1F73C832B83A12CB12CC12CD12C312CB0
:103AE000C2018C0D9D1D9A838983CE14DF04D4F509
:103AF00018861F822F813885201731075CF5C90190
:103B000087709927892B11F0330C0EC0EF81F8854F
:103B1000F7FD379683E0F595E7958A95E1F7EA0D8D
:103B2000FB1DE60DF71D349037FE0DC021E030E09F
:103B300049815A816D817E818F819885680F791FB7
:103B4000C4010E94900C2F8138852F5F3F4F38872A
:103B50002F83D0CF3FEFC31AD30A8B819C81A80E4D
:103B6000B91EBECF28960FB6F894DEBF0FBECDBFEC
:103B7000DF91CF911F910F91FF90EF90DF90CF9049
:103B8000BF90AF909F908F907F906F905F904F907D
:103B90003F9008958F929F92AF92BF92CF92DF9203
:103BA000EF92FF920F931F93CF93DF9310919F0398
:103BB000113208F0C2C0D0919E030E9427216B01F0
:103BC0007C01C0917603CC2311F180917803909110
:103BD0007903A0917A03B0917B03892B8A2B8B2BDD
:103BE00081F30E9427218090780390907903A09020
:103BF0007A03B0907B03DC01CB018C199D09AE09DF
:103C0000BF0988169906AA06BB06D8F682C082E0CC
:103C10008093760381E0809375038FEF8093740324
:103C20001092730310937203AEE7B3E0E2E5F3E0A2
:103C300080E0181721F09D9191938F5FFACF109239
:103C40005103909151038D2F880F892B809351033D
:103C500080915003813089F5109250030E942721F2
:103C60006B017C01809151038093BB0080917803AC
:103C700090917903A0917A03B0917B03892B8A2BD1
:103C80008B2BA9F00E9427210091780310917903D2
:103C900020917A0330917B03DC01CB018C199D09C3
:103CA000AE09BF09081719072A073B0790F1809151
:103CB000BC0083FDD7CF85EC01C085EE8093BC00AE
:103CC0000E9427216B017C0180917603823039F5B7
:103CD0008091780390917903A0917A03B0917B034E
:103CE000892B8A2B8B2B81F30E942721009178034B
:103CF0001091790320917A0330917B03DC01CB0191
:103D00008C199D09AE09BF09081719072A073B0737
:103D1000D8F6809177030E94B713C5E013C0809155
:103D200074038F3F79F080917403803241F0809169
:103D30007403803331F0C4E005C0C1E003C0C2E0C9
:103D400001C0C3E010927D0310929F0310927C0388
:103D50008C2FDF91CF911F910F91FF90EF90DF900B
:103D6000CF90BF90AF909F908F900895EF92FF9269
:103D70000F931F93CF93DF937C01C62F8091F7049D
:103D80009091F804009709F459C02091FB0431E0A8
:103D900030937C0320939E0310927D0310929F0327
:103DA000DC01ED91FC910190F081E02D60E019952E
:103DB0008701EE24E394F12CD1E08091F7049091F7
:103DC000F804CC2399F1B0E2EB16F104D8F00E948C
:103DD000CA1D8091FB04D0937C0380939E031092B4
:103DE0007D0310929F038091F7049091F804DC0109
:103DF000ED91FC910190F081E02D60E01995EE24A9
:103E0000E394F12C8091F7049091F804F801649107
:103E1000DC01ED91FC910190F081E02D1995BFEF4F
:103E2000EB1AFB0AC1500F5F1F4FC7CFDF91CF9135
:103E30001F910F91FF90EF900C94CA1DE091070520
:103E4000F0910805908180910D05809589238083EC
:103E50008701CC2309F439C0F80184912091F5043D
:103E60003091F604232B31F00E94DA12C1500F5F1B
:103E70001F4FEFCF28E030E040E8E0910305F091DC
:103E8000040590910B05582F542319F05081952B60
:103E900003C05081909595239083E0910505F091A2
:103EA0000605508190910C05952B9083E0910505B6
:103EB000F0910605508190910C0590959523908383
:103EC000469521503109C9F6D1CFDF91CF911F918D
:103ED0000F91FF90EF9008954F925F926F927F92B3
:103EE0008F929F92AF92BF92EF92FF920F931F9388
:103EF000CF93DF93EC0182E0E82EF12C01E010E09B
:103F0000B80161507109CE010E947D0FFC018081D2
:103F1000823409F4A1C00CF04EC0813409F031C1E3
:103F2000B801CE010E947D0FFC016081062E000CBD
:103F3000770B60537109072E000C880B990B0E94B8
:103F4000D3294B015C01609340037093410380933C
:103F5000420390934303B701CE010E947D0FFC0101
:103F60006081062E000C770B60537109072E000C40
:103F7000880B990B0E94D3292B013C0120E030E0F3
:103F800040E251E4C501B4010E94322A9B01AC0118
:103F9000C301B2010E941B2B20E030E048EC52E448
:103FA0000E94872B609340037093410380934203E8
:103FB00090934303E6C0833409F499C0843409F034
:103FC000E0C0B801CE010E947D0FFC016081062E89
:103FD000000C770B60537109072E000C880B990BAE
:103FE0000E94D3294B015C0160934C0370934D03F5
:103FF00080934E0390934F03B701CE010E947D0F33
:10400000FC016081062E000C770B60537109072EAE
:10401000000C880B990B0E94D3292B013C0120E056
:1040200030E040E251E4C501B4010E94322A9B0114
:10403000AC01C301B2010E941B2B20E030E048EC30
:1040400052E40E94872B60934C0370934D0380933E
:104050004E0390934F0395C0B801CE010E947D0F8F
:10406000FC016081062E000C770B60537109072E4E
:10407000000C880B990B0E94D3294B015C016093C3
:104080004403709345038093460390934703B7011D
:10409000CE010E947D0FFC016081062E000C770B83
:1040A00060537109072E000C880B990B0E94D329CD
:1040B0002B013C0120E030E040E251E4C501B401B5
:1040C0000E94322A9B01AC01C301B2010E941B2B4A
:1040D00020E030E048EC52E40E94872B60934403D8
:1040E0007093450380934603909347034AC0B801F9
:1040F000CE010E947D0FFC016081062E000C770B23
:1041000060537109072E000C880B990B0E94D3296C
:104110004B015C01609348037093490380934A0309
:1041200090934B03B701CE010E947D0FFC0160818B
:10413000062E000C770B60537109072E000C880BBC
:10414000990B0E94D3292B013C0120E030E040E292
:1041500051E4C501B4010E94322A9B01AC01C301A4
:10416000B2010E941B2B20E030E048EC52E40E9498
:10417000872B609348037093490380934A0390937D
:104180004B030D5F1F4FF3E0EF0EF11C0D301105D7
:1041900009F0B6CEDF91CF911F910F91FF90EF9074
:1041A000BF90AF909F908F907F906F905F904F9057
:1041B00008958091F7049091F804892B59F060914B
:1041C0000F057091100580911105909112050E94C4
:1041D000471316C08091F5049091F604892B31F0B5
:1041E00080911805909119050E944413E0910905EA
:1041F000F0910A05908180910E0580958923808336
:104200006EE28AED94E00E94E1128091F7049091B1
:10421000F804892B51F06091130570911405809179
:104220001505909116050C944713E0910905F0913E
:104230000A05908180910E05892B80838091F50479
:104240009091F604892B11F00C94D91208953FB780
:10425000F8948091310590913205A0913305B09189
:10426000340526B5A89B05C02F3F19F00196A11D66
:10427000B11D3FBFBA2FA92F982F8827820F911DFC
:10428000A11DB11DBC01CD0142E0660F771F881F43
:10429000991F4A95D1F708951F920F920FB60F926A
:1042A00011242F933F938F939F93AF93BF9380914C
:1042B0002C0590912D05A0912E05B0912F053091E0
:1042C000300523E0230F2D3720F40196A11DB11DE9
:1042D00005C026E8230F0296A11DB11D20933005CD
:1042E00080932C0590932D05A0932E05B0932F0558
:1042F0008091310590913205A0913305B09134053C
:104300000196A11DB11D8093310590933205A093B4
:104310003305B0933405BF91AF919F918F913F9139
:104320002F910F900FBE0F901F9018958EE392E083
:104330009093DB048093DA048091F9049091FA045D
:10434000009711F00E94CA2C8AE195E00C94E10FCD
:10435000CF93DF93CDB7DEB7A0970FB6F894DEBF4B
:104360000FBECDBF789484B5826084BD84B5816072
:1043700084BD85B5826085BD85B5816085BD809130
:104380006E00816080936E001092810080918100A8
:1043900082608093810080918100816080938100A0
:1043A000809180008160809380008091B100846062
:1043B0008093B1008091B00081608093B0008091C3
:1043C0009100826080939100809191008160809340
:1043D0009100809190008160809390008091A10075
:1043E00082608093A1008091A10081608093A100F0
:1043F0008091A00081608093A00080912101826063
:10440000809321018091210181608093210180911D
:10441000200181608093200180917A0084608093E4
:104420007A0080917A00826080937A0080917A008D
:10443000816080937A0080917A00806880937A000E
:104440001092C1008DE394E00E94E71C80EA93E0A3
:104450000E94E71C62E082E00E94711C8DEF9DE0EB
:10446000909301028093000280916A0083608093A0
:104470006A00EC9A8091F9049091FA04892B11F565
:104480002091E0043091E104C901079697FD079659
:1044900023E0959587952A95E1F72091DE043091E8
:1044A000DF04AC01429FC001439F900D529F900DCD
:1044B00011240E94322C9093FA048093F904892BE2
:1044C00009F4F6C00E940E1D8091E0049091E10471
:1044D0006091DE047091DF04813291050CF414C404
:1044E000AC014054510957FF02C04F5F5F4F5595D3
:1044F00047956255710977FF02C06F5F7F4F7595D1
:10450000679510E4E12EF12C02E510E02EEC33E08B
:104510008AED94E00E94411D82E08093FC0480912A
:10452000F7049091F804892B09F407C48CE3809375
:10453000FB0410923A031092390310927D031092FB
:104540009F030E94991380E79DE090933803809326
:10455000370381E79DE09093360380933503809184
:10456000020587FD1EC061E00E94711C61E0809120
:1045700002050E94F31B61E070E080E090E00E9481
:10458000AD1C60E0809102050E94F31B6AE070E0C0
:1045900080E090E00E94AD1C61E0809102050E94E5
:1045A000F31B8091F7049091F804892B09F484C4DB
:1045B00060910F0570911005809111059091120581
:1045C0000E94471364E08AEE91E00E94B61E60915B
:1045D000E00461508AED94E00E94E11264E086EE0E
:1045E00091E00E94B61E8091FC04813009F47BC4E6
:1045F00064E18AED94E00E94E11264E082EE91E0D1
:104600000E94B61E8FE8809317058091DE0490917A
:10461000DF048038910509F06AC48091E00490912C
:10462000E1048034910509F074C48091FC04813068
:1046300009F45BC48FEC8093170512E16AED8AEDF3
:1046400094E00E94E112612F8AED94E00E94E11251
:1046500061E88AED94E00E94E112609117058AED0D
:1046600094E00E94E11269ED8AED94E00E94E1126B
:104670008091FC04813009F44EC461EF8AED94E02E
:104680000E94E11266E08CED91E00E94B61E8091DE
:10469000F7049091F804892B09F43FC46091130545
:1046A0007091140580911505909116050E9447138D
:1046B00068EE73E080E090E00E94AD1C86E692E038
:1046C0000E942E1D0E940E1D81E090E09093ED044B
:1046D0008093EC049093EB048093EA0461E08EE114
:1046E0000E94711C61E08CE10E94711C61E08AE112
:1046F0000E94711C61E088E10E94711C61E086E10A
:104700000E94711CAA24A394B12C8AE0682E712CFB
:1047100080EA93E00E944309181619060CF0E3C2E0
:104720001A8E198E1C8E1B8E1E8E1D8E40E050E040
:1047300064E772E0CE0149960E94B60F80EA93E0EA
:104740000E9443091816190664F580EA93E00E9456
:104750002109182F89831A82CD8CDE8C5FEFC51A50
:10476000D50AB601CE0149960E948F0F882369F0C1
:10477000298D3A8D8D8D9E8DBE016F5F7F4F820F8B
:10478000931F0E944D2EDE8ECD8E612F8DE394E01F
:104790000E94850962E772E08DE394E00E940412B2
:1047A000CDCFCE0149960E948C1860E070E0CE011A
:1047B00049960E947D0FFC0180818134F9F060E010
:1047C00070E0CE0149960E947D0FFC018081823409
:1047D000A9F060E070E0CE0149960E947D0FFC01D7
:1047E0008081833459F060E070E0CE0149960E94E8
:1047F0007D0FFC018081843409F071C21A82198214
:104800001C821B821E821D82698D7A8D6115710545
:1048100031F04D8D5E8DCE0101960E94B60FCE0116
:1048200001960E946C1FCE0101960E94E10F6091DB
:1048300040037091410380914203909143030E9491
:1048400073176091440370914503809146039091E2
:1048500047030E9473176091480370914903809148
:104860004A0390914B030E94731760914C0370911F
:104870004D0380914E0390914F030E9473178091D6
:10488000400390914103A0914203B0914303898377
:104890009A83AB83BC838091440390914503A0919C
:1048A0004603B09147038D839E83AF83B887809181
:1048B000480390914903A0914A03B0914B03898723
:1048C0009A87AB87BC8780914C0390914D03A09150
:1048D0004E03B0914F038D879E87AF87B88B4EE113
:1048E00050E05A8B498B8CE190E09C8B8B8BEAE1FA
:1048F000F0E0FE8BED8B48E150E0588F4F8B61E08C
:1049000086E10E94F31B85E792E00E942E1DCE01F6
:10491000019698A38F8F4E0191E1890E911C12E0B0
:10492000C12ED12C10923B0310923C0310923D03F8
:1049300010923E03EF8DF8A121903190419051905B
:10494000F8A3EF8F20E030E0A901C201B1010E947D
:10495000CC298111F5C28FB7F89440912C05509164
:104960002D0560912E0570912F058FBF2FB7F894FC
:1049700080912C0590912D05A0912E05B0912F05C9
:104980002FBF841B950BA60BB70B883E9340A10548
:10499000B10560F322E0820E911C4FEFC41AD40AD5
:1049A00056E0C516D10409F0BDCF60E086E10E9453
:1049B000F31B84EB92E00E942E1D0E940E1DC12C61
:1049C000D12C8091E2049091E3046091E404709111
:1049D000E504681779070CF03AC39C0197FD3AC3C8
:1049E00035952795C216D3060CF437C360ED77E0F2
:1049F00080E090E00E94AD1C8091E2049091E3047D
:104A0000C090E404D090E504C816D9060CF03EC36B
:104A10006C0197FF03C09FEFC91AD90AD594C794B8
:104A20001C141D040CF438C360ED77E080E090E0C6
:104A30000E94AD1C0E940E1D81E08093EE048093C5
:104A4000EF04B092ED04A092EC04B092EB04A092BB
:104A5000EA047092E7046092E6041092E90410926E
:104A6000E80486E39BE00E946A160E94421564E611
:104A700070E080E090E00E94AD1C8091F70490917E
:104A8000F804892B09F429C360910F057091100572
:104A900080911105909112050E94471362E083E214
:104AA0009BE00E94B61E60E08AED94E00E94E11255
:104AB00060E08AED94E00E94E1126FE08AED94E0FC
:104AC0000E94E11263E080E29BE00E94B61E8091AA
:104AD000F7049091F804892B09F416C3609113052B
:104AE0007091140580911505909116050E94471349
:104AF00060ED77E080E090E00E94AD1C0E94D9203C
:104B000068EE73E080E090E00E94AD1C8091F704B5
:104B10009091F804892B09F40AC360910F057091F4
:104B2000100580911105909112050E94471362E0D3
:104B300088E29BE00E94B61E60E08AED94E00E944D
:104B4000E11260E08AED94E00E94E1126FE08AEDEC
:104B500094E00E94E11263E085E29BE00E94B61EB1
:104B60008091F7049091F804892B09F4F7C26091C1
:104B700013057091140580911505909116050E94FA
:104B8000471360ED77E080E090E00E94AD1C0E944A
:104B9000D92068EE73E080E090E00E94AD1C809127
:104BA000F7049091F804892B09F4EBC260910F058A
:104BB0007091100580911105909112050E94471384
:104BC00062E08EE29BE00E94B61E6091E0048AEDF6
:104BD00094E00E94E11262E08CE29BE00E94B61E2B
:104BE00060E08AED94E00E94E11260E08AED94E0DA
:104BF0000E94E11267E08AED94E00E94E11262E017
:104C00008AE29BE00E94B61E8091F7049091F8041E
:104C1000892B09F4CDC26091130570911405809120
:104C20001505909116050E94471360ED77E080E02E
:104C300090E00E94AD1C8091F7049091F804892BBC
:104C400009F4C9C260910F0570911005809111059A
:104C5000909112050E94471362E084E39BE00E945A
:104C6000B61E6091E0048AED94E00E94E11262E0D9
:104C700082E39BE00E94B61E60E08AED94E00E9411
:104C8000E11260E08AED94E00E94E11267E08AEDB3
:104C900094E00E94E11262E080E39BE00E94B61E75
:104CA0008091F7049091F804892B09F4ABC26091CC
:104CB00013057091140580911505909116050E94B9
:104CC000471360ED77E080E090E00E94AD1C0E9409
:104CD000D92068EE73E080E090E00E94AD1CCE0128
:104CE00049960E94E10F40E050E064E772E08AE1FB
:104CF00095E00E94B60F68EE73E080E090E00E94BD
:104D0000AD1C0E947B1004CDAC014052510957FFED
:104D100002C04F5F5F4F559547956357710977FF05
:104D200002C06F5F7F4F75956795F0E2EF2EF12C13
:104D300003E710E02EEE31E0EBCB61E0809100055F
:104D40000E94711C61E0809101050E94711C80919C
:104D50000005082E000C990BFC01E458F44FE49177
:104D6000F0E0EE0FFF1FEE59F44F25913491309390
:104D7000080520930705FC01EE53F44FE491E093FE
:104D80000D0580910105082E000C990BFC01E458DB
:104D9000F44FE491F0E0EE0FFF1FEE59F44FA591B0
:104DA000B491B0930A05A0930905FC01EE53F44FAA
:104DB000E491E0930E058C91E82BEC938091F5043F
:104DC0009091F604892B09F434C01FB7F8948091B0
:104DD0003F03811127C0E1EBFBE08491E7EFFBE0AB
:104DE0009491E82FF0E0EE0FFF1FE85BF44FA591E0
:104DF000B491EC91E92321F461E085E30E94F31B77
:104E000061E085E30E94711C8CB580618CBD8CB51E
:104E100080648CBD61E084E30E94711C61E083E3E7
:104E20000E94711C80913F038F5F80933F031FBFDF
:104E300096CB61E08091FE040E94711C61E080913C
:104E4000FF040E94711C8091FE04082E000C990B37
:104E5000FC01E458F44FE491F0E0EE0FFF1FEE592F
:104E6000F44F259134913093040520930305FC0100
:104E7000EE53F44FE491E0930B058091FF04082E6C
:104E8000000C990BFC01E458F44FE491F0E0EE0FB4
:104E9000FF1FEE59F44FA591B491B0930605A0936E
:104EA0000505FC01EE53F44FE491E0930C058C9161
:104EB000E095E823EC9353CB8091F5049091F604B0
:104EC000892B31F080911805909119050E944413A7
:104ED000E0910905F0910A05908180910E05809579
:104EE000892380836FCB60E184CB8FE9A4CB8036AC
:104EF000910579F48091E0049091E104409749F4A0
:104F00008091FC04813011F08FEA01C080E1809330
:104F1000170512E093CB62E2B1CBE0910905F09165
:104F20000A05908180910E05892B80838091F5047C
:104F30009091F604892B09F4BBCB0E94D912B8CB0F
:104F40000E940E1DF1E0F093EE04F093EF04B09296
:104F5000ED04A092EC04B092EB04A092EA047092EB
:104F6000E7046092E6041092E9041092E8048EE0EF
:104F70009BE00E946A160E944215B0E3EB2EF12CD2
:104F800000E310E024E0C216D10471F045E0C4163D
:104F9000D10469F053E0C516D10419F02EEE39E0C2
:104FA00008C02EEC38E005C02EEA37E002C02EE83B
:104FB00036E049EF5FEF68E270E08AED94E00E942E
:104FC000411D0E94421585E892E00E942E1DF401C9
:104FD000108161E0812F0E94F31B2DEC3CEC4CE032
:104FE00050E4C201B1010E94872B20E030E040EF85
:104FF00051E40E94322A1B012C0110923B031092B3
:105000003C0310923D0310923E0320913B033091EC
:105010003C0340913D0350913E03C201B1010E9407
:10502000282C18163CF462E772E08DE394E00E94AD
:105030000412EBCF85E992E00E942E1D60E0812FE3
:105040000E94F31B84EA92E00E942E1D84CC9B01F7
:1050500077FFC6CC2F5F3F4FC3CC77FF02C06F5F97
:105060007F4F7595679597FD0196A6019595879554
:105070000E948C160E94421561E070E080E090E092
:105080000E94AD1C82E0C80ED11C9BCCD7FEC6CCC2
:10509000EFEFCE1ADE0AC2CC6091E4047091E50411
:1050A00077FF02C06F5F7F4F759567958091E2042F
:1050B0009091E30497FD0196A601959587950E942E
:1050C0008C160E94421561E070E080E090E00E9442
:1050D000AD1CF2E0CF1AD108A3CC8091F5049091D9
:1050E000F604892B31F080911805909119050E94E2
:1050F0004413E0910905F0910A05908180910E0515
:10510000809589238083CACCE0910905F0910A0536
:10511000908180910E05892B80838091F504909178
:10512000F604892B09F4E4CC0E94D912E1CC8091D9
:10513000F5049091F604892B31F080911805909137
:1051400019050E944413E0910905F0910A05908128
:1051500080910E05809589238083E9CCE091090533
:10516000F0910A05908180910E05892B80838091B2
:10517000F5049091F604892B09F403CD0E94D9120D
:1051800000CD8091F5049091F604892B31F0809147
:105190001805909119050E944413E0910905F091BA
:1051A0000A05908180910E0580958923808308CD22
:1051B000E0910905F0910A05908180910E05892BF7
:1051C00080838091F5049091F604892B09F42DCD0C
:1051D0000E94D9122ACD8091F5049091F604892B72
:1051E00031F080911805909119050E944413E091C7
:1051F0000905F0910A05908180910E05809589231B
:1052000080832ACDE0910905F0910A059081809173
:105210000E05892B80838091F5049091F604892BEB
:1052200009F44FCD0E94D9124CCDCF93DF93E0EA21
:10523000F3E01382128288EE93E0A0E0B0E0848372
:105240009583A683B7832AE132E03183208345E347
:1052500051E05587448744E351E05787468740E350
:1052600051E0518B408B41E351E0538B428B42E341
:1052700051E0558B448B46E351E0578B468B118EA2
:10528000128E138E148EEDE3F4E013821282848367
:105290009583A683B7833183208325EC30E035875F
:1052A000248724EC30E03787268720EC30E0318BF0
:1052B000208B21EC30E0338B228B22EC30E0358BDD
:1052C000248B26EC30E0378B268B118E128E138EBA
:1052D000148EC0E2D5E01B821A828C839D83AE833C
:1052E000BF838CE292E099838883EAE1F5E0118242
:1052F0001082138212821582148240E050E064E72B
:1053000072E0CF010E94B60FEAEDF4E01382128240
:1053100020E830E03583248380E290E09783868321
:105320003187208793878287168A15861486178689
:10533000168681E0858B848B2FEF3FEF338B228B9A
:10534000318B208B878B108E128E118E8EE392E024
:1053500091838083148E138ED68FC58F10A2178EE3
:105360008FEF84A385A386A387A380A780E89AE113
:10537000A6E0B0E085AB96ABA7ABB0AF80EA96E80D
:10538000A1E0B0E081AF92AFA3AFB4AF80E586AF4C
:1053900017AEDF91CF9108950E940E2A08F481E0A4
:1053A0000895E89409C097FB3EF490958095709518
:1053B00061957F4F8F4F9F4F9923A9F0F92F96E961
:1053C000BB279395F695879577956795B795F111D6
:1053D000F8CFFAF4BB0F11F460FF1BC06F5F7F4F73
:1053E0008F4F9F4F16C0882311F096E911C0772385
:1053F00021F09EE8872F762F05C0662371F096E88E
:10540000862F70E060E02AF09A95660F771F881F5C
:10541000DAF7880F9695879597F90895990F000800
:10542000550FAA0BE0E8FEEF16161706E807F90776
:10543000C0F012161306E407F50798F0621B730B11
:10544000840B950B39F40A2661F0232B242B252B92
:1054500021F408950A2609F4A140A6958FEF811D35
:10546000811D08950E94452A0C94B62A0E94A82AFC
:1054700038F00E94AF2A20F0952311F00C949F2A57
:105480000C94A52A11240C94EA2A0E94C72A70F3CE
:10549000959FC1F3950F50E0551F629FF001729FD9
:1054A000BB27F00DB11D639FAA27F00DB11DAA1FE8
:1054B000649F6627B00DA11D661F829F2227B00D35
:1054C000A11D621F739FB00DA11D621F839FA00DC0
:1054D000611D221F749F3327A00D611D231F849F10
:1054E000600D211D822F762F6A2F11249F57504067
:1054F0009AF0F1F088234AF0EE0FFF1FBB1F661FE2
:10550000771F881F91505040A9F79E3F510580F0AA
:105510000C949F2A0C94EA2A5F3FE4F3983ED4F35C
:10552000869577956795B795F795E7959F5FC1F74E
:10553000FE2B880F911D9695879597F9089597F9F9
:105540009F6780E870E060E008959FEF80EC089529
:1055500000240A9416161706180609060895002452
:105560000A9412161306140605060895092E0394CC
:10557000000C11F4882352F0BB0F40F4BF2B11F440
:1055800060FF04C06F5F7F4F8F4F9F4F089557FD9F
:105590009058440F551F59F05F3F71F04795880FA1
:1055A00097FB991F61F09F3F79F087950895121638
:1055B00013061406551FF2CF4695F1DF08C01616E4
:1055C00017061806991FF1CF869571056105089495
:1055D0000895E894BB2766277727CB0197F90895AC
:1055E000A1E21A2EAA1BBB1BFD010DC0AA1FBB1FE7
:1055F000EE1FFF1FA217B307E407F50720F0A21B59
:10560000B30BE40BF50B661F771F881F991F1A94C5
:1056100069F760957095809590959B01AC01BD01EF
:10562000CF010895EE0FFF1F881F8BBF0790F691E3
:10563000E02D19945058BB27AA270E94322B0C94B6
:10564000B62A0E94A82A38F00E94AF2A20F039F426
:105650009F3F19F426F40C94A52A0EF4E095E7FB7D
:105660000C949F2AE92F0E94C72A58F3BA176207A1
:1056700073078407950720F079F4A6F50C94E92ABE
:105680000EF4E0950B2EBA2FA02D0B01B90190015D
:105690000C01CA01A0011124FF27591B99F0593FA1
:1056A00050F4503E68F11A16F040A22F232F342FE9
:1056B0004427585FF3CF469537952795A795F04037
:1056C0005395C9F77EF41F16BA0B620B730B840B4C
:1056D000BAF09150A1F0FF0FBB1F661F771F881F04
:1056E000C2F70EC0BA0F621F731F841F48F487955C
:1056F00077956795B795F7959E3F08F0B0CF93954E
:10570000880F08F09927EE0F9795879508950E94C6
:105710009B2B0C94B62A0E94AF2A58F00E94A82A0C
:1057200040F029F45F3F29F00C949F2A51110C940A
:10573000EA2A0C94A52A0E94C72A68F39923B1F398
:10574000552391F3951B550BBB27AA2762177307A7
:10575000840738F09F5F5F4F220F331F441FAA1F3B
:10576000A9F335D00E2E3AF0E0E832D091505040F7
:10577000E695001CCAF72BD0FE2F29D0660F771FA5
:10578000881FBB1F261737074807AB07B0E809F08B
:10579000BB0B802DBF01FF2793585F4F3AF09E3F10
:1057A000510578F00C949F2A0C94EA2A5F3FE4F3A9
:1057B000983ED4F3869577956795B795F7959F5F53
:1057C000C9F7880F911D9695879597F90895E1E09F
:1057D000660F771F881FBB1F621773078407BA07FE
:1057E00020F0621B730B840BBA0BEE1F88F7E09559
:1057F00008950E94CF2A88F09F5798F0B92F9927D3
:10580000B751B0F0E1F0660F771F881F991F1AF0AB
:10581000BA95C9F714C0B13091F00E94E92AB1E0FD
:1058200008950C94E92A672F782F8827B85F39F0FC
:10583000B93FCCF3869577956795B395D9F73EF444
:1058400090958095709561957F4F8F4F9F4F0895EC
:105850000E940E2A08F48FEF08950E940E2A880BEA
:10586000990B08950F931F93CF93DF938230910587
:1058700010F482E090E0E0913705F091380520E0E7
:1058800030E0A0E0B0E0309719F140815181028111
:10589000138148175907C8F08417950769F41097C2
:1058A00031F012960C93129713961C9327C0009315
:1058B00037051093380522C02115310519F042171C
:1058C000530718F49A01BD01EF01DF01F801DBCFA6
:1058D00021153105F9F0281B390B2430310580F4EE
:1058E0008A819B816115710521F0FB01938382837D
:1058F00004C09093380580933705FE01329644C06A
:10590000FE01E20FF31F81939193225031093983F5
:1059100028833AC02091350530913605232B41F478
:1059200020911202309113023093360520933505F1
:1059300020911002309111022115310541F42DB74B
:105940003EB74091140250911502241B350BE09193
:105950003505F0913605E217F307A0F42E1B3F0B37
:105960002817390778F0AC014E5F5F4F24173507D1
:1059700048F04E0F5F1F50933605409335058193D5
:10598000919302C0E0E0F0E0CF01DF91CF911F9151
:105990000F910895CF93DF93009709F481C0FC0124
:1059A000329713821282A0913705B0913805109773
:1059B00081F420813181820F931F20913505309130
:1059C00036052817390751F5F0933605E09335056C
:1059D00067C0ED0120E030E0CE17DF0740F44A81D8
:1059E0005B819E0141155105F1F0EA01F5CFD383AA
:1059F000C28340815181840F951FC817D90759F47C
:105A000088819981840F951F0296918380838A8172
:105A10009B81938382832115310529F4F093380506
:105A2000E09337053DC0E901FB83EA834991599131
:105A3000C40FD51FEC17FD0761F480819181840F9D
:105A4000951F0296E90199838883828193819B83C4
:105A50008A83E0E0F0E012968D919C911397009775
:105A600019F0FD01DC01F7CF8D919C9111979D01FB
:105A70002E5F3F4F820F931F2091350530913605E1
:105A80002817390769F4309729F4109238051092D5
:105A9000370502C013821282B0933605A0933505F4
:105AA000DF91CF9108956F927F928F929F92AF92E4
:105AB000BF92CF92DF92EF92FF920F931F93CF93FB
:105AC000DF93009789F4CB01DF91CF911F910F9164
:105AD000FF90EF90DF90CF90BF90AF909F908F900E
